{
  "contractName": "Tickets",
  "abi": [
    {
      "inputs": [],
      "stateMutability": "nonpayable",
      "type": "constructor"
    },
    {
      "inputs": [],
      "name": "TOTAL_TICKETS",
      "outputs": [
        {
          "internalType": "uint256",
          "name": "",
          "type": "uint256"
        }
      ],
      "stateMutability": "view",
      "type": "function"
    },
    {
      "inputs": [],
      "name": "owner",
      "outputs": [
        {
          "internalType": "address",
          "name": "",
          "type": "address"
        }
      ],
      "stateMutability": "view",
      "type": "function"
    },
    {
      "inputs": [
        {
          "internalType": "uint256",
          "name": "",
          "type": "uint256"
        }
      ],
      "name": "tickets",
      "outputs": [
        {
          "internalType": "uint256",
          "name": "price",
          "type": "uint256"
        },
        {
          "internalType": "address",
          "name": "owner",
          "type": "address"
        }
      ],
      "stateMutability": "view",
      "type": "function"
    },
    {
      "inputs": [
        {
          "internalType": "uint256",
          "name": "_index",
          "type": "uint256"
        }
      ],
      "name": "buyTicket",
      "outputs": [],
      "stateMutability": "payable",
      "type": "function"
    }
  ],
  "bytecode": "0x6080604052336000806101000a81548173ffffffffffffffffffffffffffffffffffffffff021916908373ffffffffffffffffffffffffffffffffffffffff16021790555034801561005057600080fd5b5060005b600a81101561013f5767016345785d8a0000600182600a81106100a0577f4e487b7100000000000000000000000000000000000000000000000000000000600052603260045260246000fd5b60020201600001819055506000600182600a81106100e7577f4e487b7100000000000000000000000000000000000000000000000000000000600052603260045260246000fd5b6002020160010160006101000a81548173ffffffffffffffffffffffffffffffffffffffff021916908373ffffffffffffffffffffffffffffffffffffffff16021790555080806101379061014f565b915050610054565b506101c7565b6000819050919050565b600061015a82610145565b91507fffffffffffffffffffffffffffffffffffffffffffffffffffffffffffffffff82141561018d5761018c610198565b5b600182019050919050565b7f4e487b7100000000000000000000000000000000000000000000000000000000600052601160045260246000fd5b610430806101d66000396000f3fe60806040526004361061003f5760003560e01c806350b447121461004457806367dd74ca146100825780638da5cb5b1461009e578063afbd1782146100c9575b600080fd5b34801561005057600080fd5b5061006b60048036038101906100669190610301565b6100f4565b60405161007992919061037e565b60405180910390f35b61009c60048036038101906100979190610301565b61013e565b005b3480156100aa57600080fd5b506100b36102c3565b6040516100c09190610348565b60405180910390f35b3480156100d557600080fd5b506100de6102e7565b6040516100eb9190610363565b60405180910390f35b600181600a811061010457600080fd5b600202016000915090508060000154908060010160009054906101000a900473ffffffffffffffffffffffffffffffffffffffff16905082565b600a8110801561014f575060008110155b61015857600080fd5b600073ffffffffffffffffffffffffffffffffffffffff16600182600a81106101aa577f4e487b7100000000000000000000000000000000000000000000000000000000600052603260045260246000fd5b6002020160010160009054906101000a900473ffffffffffffffffffffffffffffffffffffffff1673ffffffffffffffffffffffffffffffffffffffff16146101f257600080fd5b600181600a811061022c577f4e487b7100000000000000000000000000000000000000000000000000000000600052603260045260246000fd5b600202016000015434101561024057600080fd5b33600182600a811061027b577f4e487b7100000000000000000000000000000000000000000000000000000000600052603260045260246000fd5b6002020160010160006101000a81548173ffffffffffffffffffffffffffffffffffffffff021916908373ffffffffffffffffffffffffffffffffffffffff16021790555050565b60008054906101000a900473ffffffffffffffffffffffffffffffffffffffff1681565b600a81565b6000813590506102fb816103e3565b92915050565b60006020828403121561031357600080fd5b6000610321848285016102ec565b91505092915050565b610333816103a7565b82525050565b610342816103d9565b82525050565b600060208201905061035d600083018461032a565b92915050565b60006020820190506103786000830184610339565b92915050565b60006040820190506103936000830185610339565b6103a0602083018461032a565b9392505050565b60006103b2826103b9565b9050919050565b600073ffffffffffffffffffffffffffffffffffffffff82169050919050565b6000819050919050565b6103ec816103d9565b81146103f757600080fd5b5056fea26469706673582212209214bfd5d770e98c7d41084619ba32701f8708fa1e95d2c6b821b182b93dd33564736f6c63430008000033",
  "immutableReferences": {},
  "source": "// SPDX-License-Identifier: UNLICENSED \r\npragma solidity >=0.4.22 <0.9.0;\r\n\r\ncontract Tickets {\r\n  address public owner = msg.sender;\r\n\r\n  struct Ticket {\r\n    uint256 price;\r\n    address owner;\r\n  }\r\n\r\n  uint256 public constant TOTAL_TICKETS = 10;\r\n\r\n  Ticket[TOTAL_TICKETS] public tickets;\r\n\r\n  constructor() {\r\n    for (uint256 i = 0; i < TOTAL_TICKETS; i++) {\r\n      tickets[i].price = 1e17; // 0.1 ETH\r\n      tickets[i].owner = address(0x0);\r\n    }\r\n  }\r\n\r\n  function buyTicket(uint256 _index) external payable {\r\n    require(_index < TOTAL_TICKETS && _index >= 0);\r\n    require(tickets[_index].owner == address(0x0));\r\n    require(msg.value >= tickets[_index].price);\r\n    tickets[_index].owner = msg.sender;\r\n  }\r\n}",
  "sourcePath": "D:\\Miguel\\Documentos\\Maestra\\Tesis\\DApps\\AngularGanacheTemplate\\contracts\\Tickets.sol",
  "compiler": {
    "name": "solc",
    "version": "0.8.0+commit.c7dfd78e.Emscripten.clang"
  },
  "schemaVersion": "3.4.16",
  "updatedAt": "2024-02-09T19:54:51.542Z",
  "devdoc": {
    "kind": "dev",
    "methods": {},
    "version": 1
  },
  "userdoc": {
    "kind": "user",
    "methods": {},
    "version": 1
  }
}