{
  "contractName": "VehicleContract",
  "abi": [
    {
      "inputs": [],
      "stateMutability": "nonpayable",
      "type": "constructor"
    },
    {
      "inputs": [],
      "name": "owner",
      "outputs": [
        {
          "internalType": "address",
          "name": "",
          "type": "address"
        }
      ],
      "stateMutability": "view",
      "type": "function"
    },
    {
      "inputs": [],
      "name": "ownerData",
      "outputs": [
        {
          "internalType": "string",
          "name": "name",
          "type": "string"
        },
        {
          "internalType": "uint256",
          "name": "cedula",
          "type": "uint256"
        }
      ],
      "stateMutability": "view",
      "type": "function"
    },
    {
      "inputs": [
        {
          "internalType": "uint256",
          "name": "",
          "type": "uint256"
        }
      ],
      "name": "ownershipHistory",
      "outputs": [
        {
          "internalType": "address",
          "name": "previousOwner",
          "type": "address"
        },
        {
          "internalType": "uint256",
          "name": "timestamp",
          "type": "uint256"
        }
      ],
      "stateMutability": "view",
      "type": "function"
    },
    {
      "inputs": [],
      "name": "vehicleData",
      "outputs": [
        {
          "internalType": "string",
          "name": "brand",
          "type": "string"
        },
        {
          "internalType": "string",
          "name": "model",
          "type": "string"
        }
      ],
      "stateMutability": "view",
      "type": "function"
    },
    {
      "inputs": [
        {
          "internalType": "string",
          "name": "_brand",
          "type": "string"
        },
        {
          "internalType": "string",
          "name": "_model",
          "type": "string"
        }
      ],
      "name": "setVehicleInfo",
      "outputs": [],
      "stateMutability": "nonpayable",
      "type": "function"
    },
    {
      "inputs": [
        {
          "internalType": "string",
          "name": "_name",
          "type": "string"
        },
        {
          "internalType": "uint256",
          "name": "_cedula",
          "type": "uint256"
        }
      ],
      "name": "setOwnerInfo",
      "outputs": [],
      "stateMutability": "nonpayable",
      "type": "function"
    },
    {
      "inputs": [],
      "name": "getOwnershipHistoryCount",
      "outputs": [
        {
          "internalType": "uint256",
          "name": "",
          "type": "uint256"
        }
      ],
      "stateMutability": "view",
      "type": "function"
    },
    {
      "inputs": [],
      "name": "getVehicleInfo",
      "outputs": [
        {
          "internalType": "string",
          "name": "",
          "type": "string"
        }
      ],
      "stateMutability": "view",
      "type": "function"
    }
  ],
  "bytecode": "0x608060405234801561001057600080fd5b50336000806101000a81548173ffffffffffffffffffffffffffffffffffffffff021916908373ffffffffffffffffffffffffffffffffffffffff160217905550610cdd806100606000396000f3fe608060405234801561001057600080fd5b50600436106100885760003560e01c80638da5cb5b1161005b5780638da5cb5b14610119578063919a85bd14610137578063ac51169114610153578063d70798291461016f57610088565b806307ed6a0e1461008d5780630c5f37cd146100ab57806319159f20146100ca57806373a416bb146100fb575b600080fd5b61009561018e565b6040516100a29190610a30565b60405180910390f35b6100b3610223565b6040516100c1929190610a52565b60405180910390f35b6100e460048036038101906100df9190610906565b610345565b6040516100f2929190610a07565b60405180910390f35b610103610399565b6040516101109190610ad9565b60405180910390f35b6101216103a6565b60405161012e91906109ec565b60405180910390f35b610151600480360381019061014c9190610846565b6103ca565b005b61016d600480360381019061016891906108b2565b6104b0565b005b61017761068c565b604051610185929190610a89565b60405180910390f35b6060600160000180546101a090610bef565b80601f01602080910402602001604051908101604052809291908181526020018280546101cc90610bef565b80156102195780601f106101ee57610100808354040283529160200191610219565b820191906000526020600020905b8154815290600101906020018083116101fc57829003601f168201915b5050505050905090565b600180600001805461023490610bef565b80601f016020809104026020016040519081016040528092919081815260200182805461026090610bef565b80156102ad5780601f10610282576101008083540402835291602001916102ad565b820191906000526020600020905b81548152906001019060200180831161029057829003601f168201915b5050505050908060010180546102c290610bef565b80601f01602080910402602001604051908101604052809291908181526020018280546102ee90610bef565b801561033b5780601f106103105761010080835404028352916020019161033b565b820191906000526020600020905b81548152906001019060200180831161031e57829003601f168201915b5050505050905082565b6005818154811061035557600080fd5b90600052602060002090600202016000915090508060000160009054906101000a900473ffffffffffffffffffffffffffffffffffffffff16908060010154905082565b6000600580549050905090565b60008054906101000a900473ffffffffffffffffffffffffffffffffffffffff1681565b60008054906101000a900473ffffffffffffffffffffffffffffffffffffffff1673ffffffffffffffffffffffffffffffffffffffff163373ffffffffffffffffffffffffffffffffffffffff1614610458576040517f08c379a000000000000000000000000000000000000000000000000000000000815260040161044f90610ab9565b60405180910390fd5b6040518060400160405280838152602001828152506001600082015181600001908051906020019061048b929190610726565b5060208201518160010190805190602001906104a8929190610726565b509050505050565b60008054906101000a900473ffffffffffffffffffffffffffffffffffffffff1673ffffffffffffffffffffffffffffffffffffffff163373ffffffffffffffffffffffffffffffffffffffff161461053e576040517f08c379a000000000000000000000000000000000000000000000000000000000815260040161053590610ab9565b60405180910390fd5b6005604051806040016040528060008054906101000a900473ffffffffffffffffffffffffffffffffffffffff1673ffffffffffffffffffffffffffffffffffffffff16815260200142815250908060018154018082558091505060019003906000526020600020906002020160009091909190915060008201518160000160006101000a81548173ffffffffffffffffffffffffffffffffffffffff021916908373ffffffffffffffffffffffffffffffffffffffff1602179055506020820151816001015550506040518060400160405280838152602001828152506003600082015181600001908051906020019061063a929190610726565b5060208201518160010155905050336000806101000a81548173ffffffffffffffffffffffffffffffffffffffff021916908373ffffffffffffffffffffffffffffffffffffffff1602179055505050565b600380600001805461069d90610bef565b80601f01602080910402602001604051908101604052809291908181526020018280546106c990610bef565b80156107165780601f106106eb57610100808354040283529160200191610716565b820191906000526020600020905b8154815290600101906020018083116106f957829003601f168201915b5050505050908060010154905082565b82805461073290610bef565b90600052602060002090601f016020900481019282610754576000855561079b565b82601f1061076d57805160ff191683800117855561079b565b8280016001018555821561079b579182015b8281111561079a57825182559160200191906001019061077f565b5b5090506107a891906107ac565b5090565b5b808211156107c55760008160009055506001016107ad565b5090565b60006107dc6107d784610b25565b610af4565b9050828152602081018484840111156107f457600080fd5b6107ff848285610bad565b509392505050565b600082601f83011261081857600080fd5b81356108288482602086016107c9565b91505092915050565b60008135905061084081610c90565b92915050565b6000806040838503121561085957600080fd5b600083013567ffffffffffffffff81111561087357600080fd5b61087f85828601610807565b925050602083013567ffffffffffffffff81111561089c57600080fd5b6108a885828601610807565b9150509250929050565b600080604083850312156108c557600080fd5b600083013567ffffffffffffffff8111156108df57600080fd5b6108eb85828601610807565b92505060206108fc85828601610831565b9150509250929050565b60006020828403121561091857600080fd5b600061092684828501610831565b91505092915050565b61093881610b71565b82525050565b600061094982610b55565b6109538185610b60565b9350610963818560208601610bbc565b61096c81610c7f565b840191505092915050565b6000610984602583610b60565b91507f4f6e6c7920746865206f776e65722063616e2063616c6c20746869732066756e60008301527f6374696f6e0000000000000000000000000000000000000000000000000000006020830152604082019050919050565b6109e681610ba3565b82525050565b6000602082019050610a01600083018461092f565b92915050565b6000604082019050610a1c600083018561092f565b610a2960208301846109dd565b9392505050565b60006020820190508181036000830152610a4a818461093e565b905092915050565b60006040820190508181036000830152610a6c818561093e565b90508181036020830152610a80818461093e565b90509392505050565b60006040820190508181036000830152610aa3818561093e565b9050610ab260208301846109dd565b9392505050565b60006020820190508181036000830152610ad281610977565b9050919050565b6000602082019050610aee60008301846109dd565b92915050565b6000604051905081810181811067ffffffffffffffff82111715610b1b57610b1a610c50565b5b8060405250919050565b600067ffffffffffffffff821115610b4057610b3f610c50565b5b601f19601f8301169050602081019050919050565b600081519050919050565b600082825260208201905092915050565b6000610b7c82610b83565b9050919050565b600073ffffffffffffffffffffffffffffffffffffffff82169050919050565b6000819050919050565b82818337600083830152505050565b60005b83811015610bda578082015181840152602081019050610bbf565b83811115610be9576000848401525b50505050565b60006002820490506001821680610c0757607f821691505b60208210811415610c1b57610c1a610c21565b5b50919050565b7f4e487b7100000000000000000000000000000000000000000000000000000000600052602260045260246000fd5b7f4e487b7100000000000000000000000000000000000000000000000000000000600052604160045260246000fd5b6000601f19601f8301169050919050565b610c9981610ba3565b8114610ca457600080fd5b5056fea2646970667358221220a59d7dd496f418ef6a40f5a483d22a66ffc213816b72fe6c03c3a7cc58423baa64736f6c63430008000033",
  "immutableReferences": {},
  "source": "// SPDX-License-Identifier: MIT\r\npragma solidity ^0.8.0;\r\n\r\ncontract VehicleContract {\r\n    address public owner;\r\n    \r\n    struct VehicleInfo {\r\n        string brand;\r\n        string model;\r\n    }\r\n\r\n    struct OwnerInfo {\r\n        string name;\r\n        uint256 cedula;\r\n    }\r\n\r\n    struct OwnershipRecord {\r\n        address previousOwner;\r\n        uint256 timestamp;\r\n    }\r\n\r\n    VehicleInfo public vehicleData;\r\n    OwnerInfo public ownerData;\r\n    OwnershipRecord[] public ownershipHistory;\r\n\r\n    modifier onlyOwner() {\r\n        require(msg.sender == owner, \"Only the owner can call this function\");\r\n        _;\r\n    }\r\n\r\n    constructor() {\r\n        owner = msg.sender;\r\n    }\r\n\r\n    function setVehicleInfo(string memory _brand, string memory _model) public onlyOwner {\r\n        vehicleData = VehicleInfo({\r\n            brand: _brand,\r\n            model: _model\r\n        });\r\n    }\r\n\r\n    function setOwnerInfo(string memory _name, uint256 _cedula) public onlyOwner {\r\n        // Aade un nuevo registro al historial de propietarios\r\n        ownershipHistory.push(OwnershipRecord({\r\n            previousOwner: owner,\r\n            timestamp: block.timestamp\r\n        }));\r\n\r\n        ownerData = OwnerInfo({\r\n            name: _name,\r\n            cedula: _cedula\r\n        });\r\n\r\n        // Actualiza al nuevo propietario\r\n        owner = msg.sender;\r\n    }\r\n\r\n    function getOwnershipHistoryCount() public view returns (uint256) {\r\n        return ownershipHistory.length;\r\n    }\r\n\r\n    function getVehicleInfo() public view returns (string memory) {\r\n        return (vehicleData.brand);\r\n    }\r\n}",
  "sourcePath": "D:\\Miguel\\Documentos\\Maestra\\Tesis\\DApps\\AngularGanacheTemplate\\contracts\\VehicleContract.sol",
  "compiler": {
    "name": "solc",
    "version": "0.8.0+commit.c7dfd78e.Emscripten.clang"
  },
  "schemaVersion": "3.4.16",
  "updatedAt": "2024-02-09T19:54:51.547Z",
  "devdoc": {
    "kind": "dev",
    "methods": {},
    "version": 1
  },
  "userdoc": {
    "kind": "user",
    "methods": {},
    "version": 1
  }
}