{
  "contractName": "VehiculoContract",
  "abi": [
    {
      "inputs": [],
      "stateMutability": "nonpayable",
      "type": "constructor"
    },
    {
      "inputs": [],
      "name": "datosBasicosVehiculo",
      "outputs": [
        {
          "internalType": "string",
          "name": "placa",
          "type": "string"
        },
        {
          "internalType": "string",
          "name": "numeroMotor",
          "type": "string"
        },
        {
          "internalType": "string",
          "name": "numeroChasis",
          "type": "string"
        },
        {
          "internalType": "string",
          "name": "VIN",
          "type": "string"
        },
        {
          "internalType": "string",
          "name": "marca",
          "type": "string"
        },
        {
          "internalType": "string",
          "name": "clase",
          "type": "string"
        },
        {
          "internalType": "string",
          "name": "linea",
          "type": "string"
        },
        {
          "internalType": "string",
          "name": "modelo",
          "type": "string"
        },
        {
          "internalType": "string",
          "name": "color",
          "type": "string"
        },
        {
          "internalType": "uint256",
          "name": "fechaMatricula",
          "type": "uint256"
        },
        {
          "internalType": "address",
          "name": "direccionCuentaOT",
          "type": "address"
        }
      ],
      "stateMutability": "view",
      "type": "function",
      "constant": true
    },
    {
      "inputs": [],
      "name": "detallesVehiculo",
      "outputs": [
        {
          "internalType": "string",
          "name": "cilindraje",
          "type": "string"
        },
        {
          "internalType": "string",
          "name": "potencia",
          "type": "string"
        },
        {
          "internalType": "string",
          "name": "capacidad",
          "type": "string"
        },
        {
          "internalType": "string",
          "name": "servicio",
          "type": "string"
        },
        {
          "internalType": "string",
          "name": "carroceria",
          "type": "string"
        },
        {
          "internalType": "string",
          "name": "combustible",
          "type": "string"
        }
      ],
      "stateMutability": "view",
      "type": "function",
      "constant": true
    },
    {
      "inputs": [],
      "name": "enVenta",
      "outputs": [
        {
          "internalType": "bool",
          "name": "",
          "type": "bool"
        }
      ],
      "stateMutability": "view",
      "type": "function",
      "constant": true
    },
    {
      "inputs": [
        {
          "internalType": "uint256",
          "name": "",
          "type": "uint256"
        }
      ],
      "name": "historialPropietarios",
      "outputs": [
        {
          "internalType": "address",
          "name": "",
          "type": "address"
        }
      ],
      "stateMutability": "view",
      "type": "function",
      "constant": true
    },
    {
      "inputs": [],
      "name": "precioVenta",
      "outputs": [
        {
          "internalType": "uint256",
          "name": "",
          "type": "uint256"
        }
      ],
      "stateMutability": "view",
      "type": "function",
      "constant": true
    },
    {
      "inputs": [],
      "name": "propietario",
      "outputs": [
        {
          "internalType": "address",
          "name": "",
          "type": "address"
        }
      ],
      "stateMutability": "view",
      "type": "function",
      "constant": true
    },
    {
      "inputs": [
        {
          "internalType": "uint256",
          "name": "_precioVenta",
          "type": "uint256"
        }
      ],
      "name": "ponerEnVenta",
      "outputs": [],
      "stateMutability": "nonpayable",
      "type": "function"
    },
    {
      "inputs": [],
      "name": "comprarVehiculo",
      "outputs": [],
      "stateMutability": "payable",
      "type": "function",
      "payable": true
    },
    {
      "inputs": [
        {
          "internalType": "string",
          "name": "_placa",
          "type": "string"
        },
        {
          "internalType": "string",
          "name": "_numeroMotor",
          "type": "string"
        },
        {
          "internalType": "string",
          "name": "_numeroChasis",
          "type": "string"
        },
        {
          "internalType": "string",
          "name": "_VIN",
          "type": "string"
        },
        {
          "internalType": "string",
          "name": "_marca",
          "type": "string"
        },
        {
          "internalType": "string",
          "name": "_clase",
          "type": "string"
        },
        {
          "internalType": "string",
          "name": "_linea",
          "type": "string"
        },
        {
          "internalType": "string",
          "name": "_modelo",
          "type": "string"
        },
        {
          "internalType": "string",
          "name": "_color",
          "type": "string"
        }
      ],
      "name": "llenarDatosBasicosVehiculo",
      "outputs": [],
      "stateMutability": "nonpayable",
      "type": "function"
    },
    {
      "inputs": [
        {
          "internalType": "string",
          "name": "_cilindraje",
          "type": "string"
        },
        {
          "internalType": "string",
          "name": "_potencia",
          "type": "string"
        },
        {
          "internalType": "string",
          "name": "_capacidad",
          "type": "string"
        },
        {
          "internalType": "string",
          "name": "_servicio",
          "type": "string"
        },
        {
          "internalType": "string",
          "name": "_carroceria",
          "type": "string"
        },
        {
          "internalType": "string",
          "name": "_combustible",
          "type": "string"
        }
      ],
      "name": "llenarDetallesVehiculo",
      "outputs": [],
      "stateMutability": "nonpayable",
      "type": "function"
    },
    {
      "inputs": [],
      "name": "obtenerDatosBasicosVehiculo",
      "outputs": [
        {
          "internalType": "string",
          "name": "",
          "type": "string"
        },
        {
          "internalType": "string",
          "name": "",
          "type": "string"
        },
        {
          "internalType": "string",
          "name": "",
          "type": "string"
        },
        {
          "internalType": "string",
          "name": "",
          "type": "string"
        },
        {
          "internalType": "string",
          "name": "",
          "type": "string"
        },
        {
          "internalType": "string",
          "name": "",
          "type": "string"
        },
        {
          "internalType": "string",
          "name": "",
          "type": "string"
        },
        {
          "internalType": "string",
          "name": "",
          "type": "string"
        },
        {
          "internalType": "string",
          "name": "",
          "type": "string"
        },
        {
          "internalType": "uint256",
          "name": "",
          "type": "uint256"
        },
        {
          "internalType": "address",
          "name": "",
          "type": "address"
        }
      ],
      "stateMutability": "view",
      "type": "function",
      "constant": true
    },
    {
      "inputs": [],
      "name": "obtenerDetallesVehiculo",
      "outputs": [
        {
          "internalType": "string",
          "name": "",
          "type": "string"
        },
        {
          "internalType": "string",
          "name": "",
          "type": "string"
        },
        {
          "internalType": "string",
          "name": "",
          "type": "string"
        },
        {
          "internalType": "string",
          "name": "",
          "type": "string"
        },
        {
          "internalType": "string",
          "name": "",
          "type": "string"
        },
        {
          "internalType": "string",
          "name": "",
          "type": "string"
        }
      ],
      "stateMutability": "view",
      "type": "function",
      "constant": true
    },
    {
      "inputs": [],
      "name": "obtenerTamanoHistorial",
      "outputs": [
        {
          "internalType": "uint256",
          "name": "",
          "type": "uint256"
        }
      ],
      "stateMutability": "view",
      "type": "function",
      "constant": true
    }
  ],
  "bytecode": "0x608060405234801561001057600080fd5b50336000806101000a81548173ffffffffffffffffffffffffffffffffffffffff021916908373ffffffffffffffffffffffffffffffffffffffff1602179055506001339080600181540180825580915050600190039060005260206000200160009091909190916101000a81548173ffffffffffffffffffffffffffffffffffffffff021916908373ffffffffffffffffffffffffffffffffffffffff160217905550612272806100c36000396000f3fe6080604052600436106100c25760003560e01c80636f8db8901161007f578063c511e52b11610059578063c511e52b14610246578063c88fec3314610276578063f516c7e3146102a1578063ff43bc97146102ca576100c2565b80636f8db890146101c257806387069b09146101eb57806397aaf5b01461021b576100c2565b80631281173b146100c75780633c4f81cd14610104578063443135c41461012f5780634ef2c06014610158578063552847571461018d5780636a5857ce146101b8575b600080fd5b3480156100d357600080fd5b506100ee60048036038101906100e99190611e28565b6102ff565b6040516100fb9190611eb7565b60405180910390f35b34801561011057600080fd5b5061011961033e565b6040516101269190611eb7565b60405180910390f35b34801561013b57600080fd5b5061015660048036038101906101519190611e28565b610362565b005b34801561016457600080fd5b5061016d6103df565b6040516101849b9a99989796959493929190611f78565b60405180910390f35b34801561019957600080fd5b506101a2610957565b6040516101af9190612062565b60405180910390f35b6101c061095d565b005b3480156101ce57600080fd5b506101e960048036038101906101e49190611c8a565b610a1b565b005b3480156101f757600080fd5b50610200610c3e565b60405161021296959493929190611eed565b60405180910390f35b34801561022757600080fd5b50610230610f98565b60405161023d9190612062565b60405180910390f35b34801561025257600080fd5b5061025b610fa5565b60405161026d96959493929190611eed565b60405180910390f35b34801561028257600080fd5b5061028b611328565b6040516102989190611ed2565b60405180910390f35b3480156102ad57600080fd5b506102c860048036038101906102c39190611b71565b61133b565b005b3480156102d657600080fd5b506102df61147b565b6040516102f69b9a99989796959493929190611f78565b60405180910390f35b6001818154811061030f57600080fd5b906000526020600020016000915054906101000a900473ffffffffffffffffffffffffffffffffffffffff1681565b60008054906101000a900473ffffffffffffffffffffffffffffffffffffffff1681565b60008054906101000a900473ffffffffffffffffffffffffffffffffffffffff1673ffffffffffffffffffffffffffffffffffffffff163373ffffffffffffffffffffffffffffffffffffffff16146103ba57600080fd5b806002819055506001600360006101000a81548160ff02191690831515021790555050565b606080606080606080606080606060008060046000016004600101600460020160046003016004800160046005016004600601600460070160046008016004600901546004600a0160009054906101000a900473ffffffffffffffffffffffffffffffffffffffff168a805461045490612184565b80601f016020809104026020016040519081016040528092919081815260200182805461048090612184565b80156104cd5780601f106104a2576101008083540402835291602001916104cd565b820191906000526020600020905b8154815290600101906020018083116104b057829003601f168201915b50505050509a508980546104e090612184565b80601f016020809104026020016040519081016040528092919081815260200182805461050c90612184565b80156105595780601f1061052e57610100808354040283529160200191610559565b820191906000526020600020905b81548152906001019060200180831161053c57829003601f168201915b5050505050995088805461056c90612184565b80601f016020809104026020016040519081016040528092919081815260200182805461059890612184565b80156105e55780601f106105ba576101008083540402835291602001916105e5565b820191906000526020600020905b8154815290600101906020018083116105c857829003601f168201915b505050505098508780546105f890612184565b80601f016020809104026020016040519081016040528092919081815260200182805461062490612184565b80156106715780601f1061064657610100808354040283529160200191610671565b820191906000526020600020905b81548152906001019060200180831161065457829003601f168201915b5050505050975086805461068490612184565b80601f01602080910402602001604051908101604052809291908181526020018280546106b090612184565b80156106fd5780601f106106d2576101008083540402835291602001916106fd565b820191906000526020600020905b8154815290600101906020018083116106e057829003601f168201915b5050505050965085805461071090612184565b80601f016020809104026020016040519081016040528092919081815260200182805461073c90612184565b80156107895780601f1061075e57610100808354040283529160200191610789565b820191906000526020600020905b81548152906001019060200180831161076c57829003601f168201915b5050505050955084805461079c90612184565b80601f01602080910402602001604051908101604052809291908181526020018280546107c890612184565b80156108155780601f106107ea57610100808354040283529160200191610815565b820191906000526020600020905b8154815290600101906020018083116107f857829003601f168201915b5050505050945083805461082890612184565b80601f016020809104026020016040519081016040528092919081815260200182805461085490612184565b80156108a15780601f10610876576101008083540402835291602001916108a1565b820191906000526020600020905b81548152906001019060200180831161088457829003601f168201915b505050505093508280546108b490612184565b80601f01602080910402602001604051908101604052809291908181526020018280546108e090612184565b801561092d5780601f106109025761010080835404028352916020019161092d565b820191906000526020600020905b81548152906001019060200180831161091057829003601f168201915b505050505092509a509a509a509a509a509a509a509a509a509a509a50909192939495969798999a565b60025481565b600360009054906101000a900460ff1661097657600080fd5b60025434101561098557600080fd5b60008060009054906101000a900473ffffffffffffffffffffffffffffffffffffffff1690506109b4336119ab565b8073ffffffffffffffffffffffffffffffffffffffff166108fc6002549081150290604051600060405180830381858888f193505050501580156109fc573d6000803e3d6000fd5b506000600360006101000a81548160ff02191690831515021790555050565b60008054906101000a900473ffffffffffffffffffffffffffffffffffffffff1673ffffffffffffffffffffffffffffffffffffffff163373ffffffffffffffffffffffffffffffffffffffff1614610a7357600080fd5b6040518061016001604052808a81526020018981526020018881526020018781526020018681526020018581526020018481526020018381526020018281526020014281526020013373ffffffffffffffffffffffffffffffffffffffff1681525060046000820151816000019080519060200190610af3929190611a51565b506020820151816001019080519060200190610b10929190611a51565b506040820151816002019080519060200190610b2d929190611a51565b506060820151816003019080519060200190610b4a929190611a51565b506080820151816004019080519060200190610b67929190611a51565b5060a0820151816005019080519060200190610b84929190611a51565b5060c0820151816006019080519060200190610ba1929190611a51565b5060e0820151816007019080519060200190610bbe929190611a51565b50610100820151816008019080519060200190610bdc929190611a51565b50610120820151816009015561014082015181600a0160006101000a81548173ffffffffffffffffffffffffffffffffffffffff021916908373ffffffffffffffffffffffffffffffffffffffff160217905550905050505050505050505050565b600f806000018054610c4f90612184565b80601f0160208091040260200160405190810160405280929190818152602001828054610c7b90612184565b8015610cc85780601f10610c9d57610100808354040283529160200191610cc8565b820191906000526020600020905b815481529060010190602001808311610cab57829003601f168201915b505050505090806001018054610cdd90612184565b80601f0160208091040260200160405190810160405280929190818152602001828054610d0990612184565b8015610d565780601f10610d2b57610100808354040283529160200191610d56565b820191906000526020600020905b815481529060010190602001808311610d3957829003601f168201915b505050505090806002018054610d6b90612184565b80601f0160208091040260200160405190810160405280929190818152602001828054610d9790612184565b8015610de45780601f10610db957610100808354040283529160200191610de4565b820191906000526020600020905b815481529060010190602001808311610dc757829003601f168201915b505050505090806003018054610df990612184565b80601f0160208091040260200160405190810160405280929190818152602001828054610e2590612184565b8015610e725780601f10610e4757610100808354040283529160200191610e72565b820191906000526020600020905b815481529060010190602001808311610e5557829003601f168201915b505050505090806004018054610e8790612184565b80601f0160208091040260200160405190810160405280929190818152602001828054610eb390612184565b8015610f005780601f10610ed557610100808354040283529160200191610f00565b820191906000526020600020905b815481529060010190602001808311610ee357829003601f168201915b505050505090806005018054610f1590612184565b80601f0160208091040260200160405190810160405280929190818152602001828054610f4190612184565b8015610f8e5780601f10610f6357610100808354040283529160200191610f8e565b820191906000526020600020905b815481529060010190602001808311610f7157829003601f168201915b5050505050905086565b6000600180549050905090565b606080606080606080600f600501600f600001600f600101600f600201600f600301600f600401858054610fd890612184565b80601f016020809104026020016040519081016040528092919081815260200182805461100490612184565b80156110515780601f1061102657610100808354040283529160200191611051565b820191906000526020600020905b81548152906001019060200180831161103457829003601f168201915b5050505050955084805461106490612184565b80601f016020809104026020016040519081016040528092919081815260200182805461109090612184565b80156110dd5780601f106110b2576101008083540402835291602001916110dd565b820191906000526020600020905b8154815290600101906020018083116110c057829003601f168201915b505050505094508380546110f090612184565b80601f016020809104026020016040519081016040528092919081815260200182805461111c90612184565b80156111695780601f1061113e57610100808354040283529160200191611169565b820191906000526020600020905b81548152906001019060200180831161114c57829003601f168201915b5050505050935082805461117c90612184565b80601f01602080910402602001604051908101604052809291908181526020018280546111a890612184565b80156111f55780601f106111ca576101008083540402835291602001916111f5565b820191906000526020600020905b8154815290600101906020018083116111d857829003601f168201915b5050505050925081805461120890612184565b80601f016020809104026020016040519081016040528092919081815260200182805461123490612184565b80156112815780601f1061125657610100808354040283529160200191611281565b820191906000526020600020905b81548152906001019060200180831161126457829003601f168201915b5050505050915080805461129490612184565b80601f01602080910402602001604051908101604052809291908181526020018280546112c090612184565b801561130d5780601f106112e25761010080835404028352916020019161130d565b820191906000526020600020905b8154815290600101906020018083116112f057829003601f168201915b50505050509050955095509550955095509550909192939495565b600360009054906101000a900460ff1681565b60008054906101000a900473ffffffffffffffffffffffffffffffffffffffff1673ffffffffffffffffffffffffffffffffffffffff163373ffffffffffffffffffffffffffffffffffffffff161461139357600080fd5b6040518060c0016040528087815260200186815260200185815260200184815260200183815260200182815250600f60008201518160000190805190602001906113de929190611a51565b5060208201518160010190805190602001906113fb929190611a51565b506040820151816002019080519060200190611418929190611a51565b506060820151816003019080519060200190611435929190611a51565b506080820151816004019080519060200190611452929190611a51565b5060a082015181600501908051906020019061146f929190611a51565b50905050505050505050565b600480600001805461148c90612184565b80601f01602080910402602001604051908101604052809291908181526020018280546114b890612184565b80156115055780601f106114da57610100808354040283529160200191611505565b820191906000526020600020905b8154815290600101906020018083116114e857829003601f168201915b50505050509080600101805461151a90612184565b80601f016020809104026020016040519081016040528092919081815260200182805461154690612184565b80156115935780601f1061156857610100808354040283529160200191611593565b820191906000526020600020905b81548152906001019060200180831161157657829003601f168201915b5050505050908060020180546115a890612184565b80601f01602080910402602001604051908101604052809291908181526020018280546115d490612184565b80156116215780601f106115f657610100808354040283529160200191611621565b820191906000526020600020905b81548152906001019060200180831161160457829003601f168201915b50505050509080600301805461163690612184565b80601f016020809104026020016040519081016040528092919081815260200182805461166290612184565b80156116af5780601f10611684576101008083540402835291602001916116af565b820191906000526020600020905b81548152906001019060200180831161169257829003601f168201915b5050505050908060040180546116c490612184565b80601f01602080910402602001604051908101604052809291908181526020018280546116f090612184565b801561173d5780601f106117125761010080835404028352916020019161173d565b820191906000526020600020905b81548152906001019060200180831161172057829003601f168201915b50505050509080600501805461175290612184565b80601f016020809104026020016040519081016040528092919081815260200182805461177e90612184565b80156117cb5780601f106117a0576101008083540402835291602001916117cb565b820191906000526020600020905b8154815290600101906020018083116117ae57829003601f168201915b5050505050908060060180546117e090612184565b80601f016020809104026020016040519081016040528092919081815260200182805461180c90612184565b80156118595780601f1061182e57610100808354040283529160200191611859565b820191906000526020600020905b81548152906001019060200180831161183c57829003601f168201915b50505050509080600701805461186e90612184565b80601f016020809104026020016040519081016040528092919081815260200182805461189a90612184565b80156118e75780601f106118bc576101008083540402835291602001916118e7565b820191906000526020600020905b8154815290600101906020018083116118ca57829003601f168201915b5050505050908060080180546118fc90612184565b80601f016020809104026020016040519081016040528092919081815260200182805461192890612184565b80156119755780601f1061194a57610100808354040283529160200191611975565b820191906000526020600020905b81548152906001019060200180831161195857829003601f168201915b50505050509080600901549080600a0160009054906101000a900473ffffffffffffffffffffffffffffffffffffffff1690508b565b806000806101000a81548173ffffffffffffffffffffffffffffffffffffffff021916908373ffffffffffffffffffffffffffffffffffffffff1602179055506001819080600181540180825580915050600190039060005260206000200160009091909190916101000a81548173ffffffffffffffffffffffffffffffffffffffff021916908373ffffffffffffffffffffffffffffffffffffffff16021790555050565b828054611a5d90612184565b90600052602060002090601f016020900481019282611a7f5760008555611ac6565b82601f10611a9857805160ff1916838001178555611ac6565b82800160010185558215611ac6579182015b82811115611ac5578251825591602001919060010190611aaa565b5b509050611ad39190611ad7565b5090565b5b80821115611af0576000816000905550600101611ad8565b5090565b6000611b07611b02846120ae565b61207d565b905082815260208101848484011115611b1f57600080fd5b611b2a848285612142565b509392505050565b600082601f830112611b4357600080fd5b8135611b53848260208601611af4565b91505092915050565b600081359050611b6b81612225565b92915050565b60008060008060008060c08789031215611b8a57600080fd5b600087013567ffffffffffffffff811115611ba457600080fd5b611bb089828a01611b32565b965050602087013567ffffffffffffffff811115611bcd57600080fd5b611bd989828a01611b32565b955050604087013567ffffffffffffffff811115611bf657600080fd5b611c0289828a01611b32565b945050606087013567ffffffffffffffff811115611c1f57600080fd5b611c2b89828a01611b32565b935050608087013567ffffffffffffffff811115611c4857600080fd5b611c5489828a01611b32565b92505060a087013567ffffffffffffffff811115611c7157600080fd5b611c7d89828a01611b32565b9150509295509295509295565b60008060008060008060008060006101208a8c031215611ca957600080fd5b60008a013567ffffffffffffffff811115611cc357600080fd5b611ccf8c828d01611b32565b99505060208a013567ffffffffffffffff811115611cec57600080fd5b611cf88c828d01611b32565b98505060408a013567ffffffffffffffff811115611d1557600080fd5b611d218c828d01611b32565b97505060608a013567ffffffffffffffff811115611d3e57600080fd5b611d4a8c828d01611b32565b96505060808a013567ffffffffffffffff811115611d6757600080fd5b611d738c828d01611b32565b95505060a08a013567ffffffffffffffff811115611d9057600080fd5b611d9c8c828d01611b32565b94505060c08a013567ffffffffffffffff811115611db957600080fd5b611dc58c828d01611b32565b93505060e08a013567ffffffffffffffff811115611de257600080fd5b611dee8c828d01611b32565b9250506101008a013567ffffffffffffffff811115611e0c57600080fd5b611e188c828d01611b32565b9150509295985092959850929598565b600060208284031215611e3a57600080fd5b6000611e4884828501611b5c565b91505092915050565b611e5a816120fa565b82525050565b611e698161210c565b82525050565b6000611e7a826120de565b611e8481856120e9565b9350611e94818560208601612151565b611e9d81612214565b840191505092915050565b611eb181612138565b82525050565b6000602082019050611ecc6000830184611e51565b92915050565b6000602082019050611ee76000830184611e60565b92915050565b600060c0820190508181036000830152611f078189611e6f565b90508181036020830152611f1b8188611e6f565b90508181036040830152611f2f8187611e6f565b90508181036060830152611f438186611e6f565b90508181036080830152611f578185611e6f565b905081810360a0830152611f6b8184611e6f565b9050979650505050505050565b6000610160820190508181036000830152611f93818e611e6f565b90508181036020830152611fa7818d611e6f565b90508181036040830152611fbb818c611e6f565b90508181036060830152611fcf818b611e6f565b90508181036080830152611fe3818a611e6f565b905081810360a0830152611ff78189611e6f565b905081810360c083015261200b8188611e6f565b905081810360e083015261201f8187611e6f565b90508181036101008301526120348186611e6f565b9050612044610120830185611ea8565b612052610140830184611e51565b9c9b505050505050505050505050565b60006020820190506120776000830184611ea8565b92915050565b6000604051905081810181811067ffffffffffffffff821117156120a4576120a36121e5565b5b8060405250919050565b600067ffffffffffffffff8211156120c9576120c86121e5565b5b601f19601f8301169050602081019050919050565b600081519050919050565b600082825260208201905092915050565b600061210582612118565b9050919050565b60008115159050919050565b600073ffffffffffffffffffffffffffffffffffffffff82169050919050565b6000819050919050565b82818337600083830152505050565b60005b8381101561216f578082015181840152602081019050612154565b8381111561217e576000848401525b50505050565b6000600282049050600182168061219c57607f821691505b602082108114156121b0576121af6121b6565b5b50919050565b7f4e487b7100000000000000000000000000000000000000000000000000000000600052602260045260246000fd5b7f4e487b7100000000000000000000000000000000000000000000000000000000600052604160045260246000fd5b6000601f19601f8301169050919050565b61222e81612138565b811461223957600080fd5b5056fea2646970667358221220ec1bb9f7af2a6fffb7d697ebf7efcb7c9349f493b190df0649e990c9a934de5c64736f6c63430008000033",
  "immutableReferences": {},
  "source": "// SPDX-License-Identifier: MIT\r\npragma solidity ^0.8.0;\r\n\r\ncontract VehiculoContract {\r\n    address public propietario;\r\n    address[] public historialPropietarios;\r\n    uint256 public precioVenta;\r\n    bool public enVenta;\r\n\r\n    struct DatosBasicosVehiculo {\r\n        string placa;\r\n        string numeroMotor;\r\n        string numeroChasis;\r\n        string VIN;\r\n        string marca;\r\n        string clase;\r\n        string linea;\r\n        string modelo;\r\n        string color;\r\n        uint256 fechaMatricula;\r\n        address direccionCuentaOT;\r\n    }\r\n\r\n    struct DetallesVehiculo {\r\n        string cilindraje;\r\n        string potencia;\r\n        string capacidad;\r\n        string servicio;\r\n        string carroceria;\r\n        string combustible;\r\n    }\r\n\r\n    DatosBasicosVehiculo public datosBasicosVehiculo;\r\n    DetallesVehiculo public detallesVehiculo;\r\n\r\n    modifier onlyOwner() {\r\n        require(msg.sender == propietario);\r\n        _;\r\n    }\r\n\r\n    constructor() {\r\n        propietario = msg.sender;\r\n        historialPropietarios.push(msg.sender);\r\n    }\r\n\r\n    function cambiarPropietario(address nuevoPropietario) internal {\r\n        propietario = nuevoPropietario;\r\n        historialPropietarios.push(nuevoPropietario);\r\n    }\r\n\r\n    function ponerEnVenta(uint256 _precioVenta) public onlyOwner {\r\n        precioVenta = _precioVenta;\r\n        enVenta = true;\r\n    }\r\n\r\n    function comprarVehiculo() public payable {\r\n        require(enVenta);\r\n        require(msg.value >= precioVenta);\r\n\r\n        address propietarioActual = propietario;\r\n\r\n        cambiarPropietario(msg.sender);\r\n\r\n        payable(propietarioActual).transfer(precioVenta);\r\n\r\n        enVenta = false;\r\n    }\r\n\r\n    function llenarDatosBasicosVehiculo(\r\n        string memory _placa,\r\n        string memory _numeroMotor,\r\n        string memory _numeroChasis,\r\n        string memory _VIN,\r\n        string memory _marca,\r\n        string memory _clase,\r\n        string memory _linea,\r\n        string memory _modelo,\r\n        string memory _color\r\n    ) public onlyOwner {\r\n        datosBasicosVehiculo = DatosBasicosVehiculo({\r\n            placa: _placa,\r\n            numeroMotor: _numeroMotor,\r\n            numeroChasis: _numeroChasis,\r\n            VIN: _VIN,\r\n            marca: _marca,\r\n            clase: _clase,\r\n            linea: _linea,\r\n            modelo: _modelo,\r\n            color: _color,\r\n            fechaMatricula: block.timestamp,\r\n            direccionCuentaOT: msg.sender\r\n        });\r\n    }\r\n\r\n    function llenarDetallesVehiculo(\r\n        string memory _cilindraje,\r\n        string memory _potencia,\r\n        string memory _capacidad,\r\n        string memory _servicio,\r\n        string memory _carroceria,\r\n        string memory _combustible\r\n    ) public onlyOwner {\r\n        detallesVehiculo = DetallesVehiculo({\r\n            cilindraje: _cilindraje,\r\n            potencia: _potencia,\r\n            capacidad: _capacidad,\r\n            servicio: _servicio,\r\n            carroceria: _carroceria,\r\n            combustible: _combustible\r\n        });\r\n    }\r\n\r\n    function obtenerDatosBasicosVehiculo() public view returns (\r\n        string memory, string memory, string memory, string memory, string memory,\r\n        string memory, string memory, string memory, string memory, uint256, address\r\n    ) {\r\n        return (\r\n            datosBasicosVehiculo.placa,\r\n            datosBasicosVehiculo.numeroMotor,\r\n            datosBasicosVehiculo.numeroChasis,\r\n            datosBasicosVehiculo.VIN,\r\n            datosBasicosVehiculo.marca,\r\n            datosBasicosVehiculo.clase,\r\n            datosBasicosVehiculo.linea,\r\n            datosBasicosVehiculo.modelo,\r\n            datosBasicosVehiculo.color,\r\n            datosBasicosVehiculo.fechaMatricula,\r\n            datosBasicosVehiculo.direccionCuentaOT\r\n        );\r\n    }\r\n\r\n    function obtenerDetallesVehiculo() public view returns (\r\n        string memory, string memory, string memory, string memory, string memory, string memory\r\n    ) {\r\n        return (\r\n            detallesVehiculo.combustible,\r\n            detallesVehiculo.cilindraje,\r\n            detallesVehiculo.potencia,\r\n            detallesVehiculo.capacidad,\r\n            detallesVehiculo.servicio,\r\n            detallesVehiculo.carroceria\r\n        );\r\n    }\r\n\r\n    function obtenerTamanoHistorial() public view returns (uint256) {\r\n        return historialPropietarios.length;\r\n    }\r\n}",
  "sourcePath": "D:\\Miguel\\Documentos\\Maestra\\Tesis\\DApps\\AngularGanacheTemplate\\contracts\\VehiculoContract.sol",
  "compiler": {
    "name": "solc",
    "version": "0.8.0+commit.c7dfd78e.Emscripten.clang"
  },
  "schemaVersion": "3.4.16",
  "updatedAt": "2024-02-20T00:39:54.994Z",
  "networkType": "ethereum",
  "devdoc": {
    "kind": "dev",
    "methods": {},
    "version": 1
  },
  "userdoc": {
    "kind": "user",
    "methods": {},
    "version": 1
  }
}