{
  "contractName": "VehiculoContract",
  "abi": [
    {
      "inputs": [],
      "stateMutability": "nonpayable",
      "type": "constructor"
    },
    {
      "inputs": [],
      "name": "datosBasicosVehiculo",
      "outputs": [
        {
          "internalType": "string",
          "name": "placa",
          "type": "string"
        },
        {
          "internalType": "string",
          "name": "numeroMotor",
          "type": "string"
        },
        {
          "internalType": "string",
          "name": "numeroChasis",
          "type": "string"
        },
        {
          "internalType": "string",
          "name": "VIN",
          "type": "string"
        },
        {
          "internalType": "string",
          "name": "marca",
          "type": "string"
        },
        {
          "internalType": "string",
          "name": "clase",
          "type": "string"
        },
        {
          "internalType": "string",
          "name": "linea",
          "type": "string"
        },
        {
          "internalType": "string",
          "name": "modelo",
          "type": "string"
        },
        {
          "internalType": "string",
          "name": "color",
          "type": "string"
        },
        {
          "internalType": "uint256",
          "name": "fechaMatricula",
          "type": "uint256"
        },
        {
          "internalType": "address",
          "name": "direccionCuentaOT",
          "type": "address"
        }
      ],
      "stateMutability": "view",
      "type": "function"
    },
    {
      "inputs": [],
      "name": "detallesVehiculo",
      "outputs": [
        {
          "internalType": "string",
          "name": "cilindraje",
          "type": "string"
        },
        {
          "internalType": "string",
          "name": "potencia",
          "type": "string"
        },
        {
          "internalType": "string",
          "name": "capacidad",
          "type": "string"
        },
        {
          "internalType": "string",
          "name": "servicio",
          "type": "string"
        },
        {
          "internalType": "string",
          "name": "carroceria",
          "type": "string"
        },
        {
          "internalType": "string",
          "name": "combustible",
          "type": "string"
        }
      ],
      "stateMutability": "view",
      "type": "function"
    },
    {
      "inputs": [],
      "name": "enVenta",
      "outputs": [
        {
          "internalType": "bool",
          "name": "",
          "type": "bool"
        }
      ],
      "stateMutability": "view",
      "type": "function"
    },
    {
      "inputs": [
        {
          "internalType": "uint256",
          "name": "",
          "type": "uint256"
        }
      ],
      "name": "fechaEventos",
      "outputs": [
        {
          "internalType": "uint256",
          "name": "",
          "type": "uint256"
        }
      ],
      "stateMutability": "view",
      "type": "function"
    },
    {
      "inputs": [
        {
          "internalType": "uint256",
          "name": "",
          "type": "uint256"
        }
      ],
      "name": "historialPropietarios",
      "outputs": [
        {
          "internalType": "address",
          "name": "",
          "type": "address"
        }
      ],
      "stateMutability": "view",
      "type": "function"
    },
    {
      "inputs": [],
      "name": "precioVenta",
      "outputs": [
        {
          "internalType": "uint256",
          "name": "",
          "type": "uint256"
        }
      ],
      "stateMutability": "view",
      "type": "function"
    },
    {
      "inputs": [],
      "name": "propietario",
      "outputs": [
        {
          "internalType": "address",
          "name": "",
          "type": "address"
        }
      ],
      "stateMutability": "view",
      "type": "function"
    },
    {
      "inputs": [
        {
          "internalType": "uint256",
          "name": "_precioVenta",
          "type": "uint256"
        }
      ],
      "name": "ponerEnVenta",
      "outputs": [],
      "stateMutability": "nonpayable",
      "type": "function"
    },
    {
      "inputs": [],
      "name": "comprarVehiculo",
      "outputs": [],
      "stateMutability": "payable",
      "type": "function"
    },
    {
      "inputs": [
        {
          "internalType": "string",
          "name": "_placa",
          "type": "string"
        },
        {
          "internalType": "string",
          "name": "_numeroMotor",
          "type": "string"
        },
        {
          "internalType": "string",
          "name": "_numeroChasis",
          "type": "string"
        },
        {
          "internalType": "string",
          "name": "_VIN",
          "type": "string"
        },
        {
          "internalType": "string",
          "name": "_marca",
          "type": "string"
        },
        {
          "internalType": "string",
          "name": "_clase",
          "type": "string"
        },
        {
          "internalType": "string",
          "name": "_linea",
          "type": "string"
        },
        {
          "internalType": "string",
          "name": "_modelo",
          "type": "string"
        },
        {
          "internalType": "string",
          "name": "_color",
          "type": "string"
        }
      ],
      "name": "llenarDatosBasicosVehiculo",
      "outputs": [],
      "stateMutability": "nonpayable",
      "type": "function"
    },
    {
      "inputs": [
        {
          "internalType": "string",
          "name": "_cilindraje",
          "type": "string"
        },
        {
          "internalType": "string",
          "name": "_potencia",
          "type": "string"
        },
        {
          "internalType": "string",
          "name": "_capacidad",
          "type": "string"
        },
        {
          "internalType": "string",
          "name": "_servicio",
          "type": "string"
        },
        {
          "internalType": "string",
          "name": "_carroceria",
          "type": "string"
        },
        {
          "internalType": "string",
          "name": "_combustible",
          "type": "string"
        }
      ],
      "name": "llenarDetallesVehiculo",
      "outputs": [],
      "stateMutability": "nonpayable",
      "type": "function"
    },
    {
      "inputs": [],
      "name": "obtenerDatosBasicosVehiculo",
      "outputs": [
        {
          "internalType": "string",
          "name": "",
          "type": "string"
        },
        {
          "internalType": "string",
          "name": "",
          "type": "string"
        },
        {
          "internalType": "string",
          "name": "",
          "type": "string"
        },
        {
          "internalType": "string",
          "name": "",
          "type": "string"
        },
        {
          "internalType": "string",
          "name": "",
          "type": "string"
        },
        {
          "internalType": "string",
          "name": "",
          "type": "string"
        },
        {
          "internalType": "string",
          "name": "",
          "type": "string"
        },
        {
          "internalType": "string",
          "name": "",
          "type": "string"
        },
        {
          "internalType": "string",
          "name": "",
          "type": "string"
        },
        {
          "internalType": "uint256",
          "name": "",
          "type": "uint256"
        },
        {
          "internalType": "address",
          "name": "",
          "type": "address"
        }
      ],
      "stateMutability": "view",
      "type": "function"
    },
    {
      "inputs": [],
      "name": "obtenerDetallesVehiculo",
      "outputs": [
        {
          "internalType": "string",
          "name": "",
          "type": "string"
        },
        {
          "internalType": "string",
          "name": "",
          "type": "string"
        },
        {
          "internalType": "string",
          "name": "",
          "type": "string"
        },
        {
          "internalType": "string",
          "name": "",
          "type": "string"
        },
        {
          "internalType": "string",
          "name": "",
          "type": "string"
        },
        {
          "internalType": "string",
          "name": "",
          "type": "string"
        }
      ],
      "stateMutability": "view",
      "type": "function"
    },
    {
      "inputs": [],
      "name": "obtenerTamanoHistorial",
      "outputs": [
        {
          "internalType": "uint256",
          "name": "",
          "type": "uint256"
        }
      ],
      "stateMutability": "view",
      "type": "function"
    }
  ],
  "bytecode": "0x608060405234801561001057600080fd5b50336000806101000a81548173ffffffffffffffffffffffffffffffffffffffff021916908373ffffffffffffffffffffffffffffffffffffffff1602179055506001339080600181540180825580915050600190039060005260206000200160009091909190916101000a81548173ffffffffffffffffffffffffffffffffffffffff021916908373ffffffffffffffffffffffffffffffffffffffff1602179055506002429080600181540180825580915050600190039060005260206000200160009091909190915055612317806100ec6000396000f3fe6080604052600436106100dd5760003560e01c806387069b091161007f578063c88fec3311610059578063c88fec3314610291578063d49587b8146102bc578063f516c7e3146102f9578063ff43bc9714610322576100dd565b806387069b091461020657806397aaf5b014610236578063c511e52b14610261576100dd565b80634ef2c060116100bb5780634ef2c0601461017357806355284757146101a85780636a5857ce146101d35780636f8db890146101dd576100dd565b80631281173b146100e25780633c4f81cd1461011f578063443135c41461014a575b600080fd5b3480156100ee57600080fd5b5061010960048036038101906101049190611ecd565b610357565b6040516101169190611f5c565b60405180910390f35b34801561012b57600080fd5b50610134610396565b6040516101419190611f5c565b60405180910390f35b34801561015657600080fd5b50610171600480360381019061016c9190611ecd565b6103ba565b005b34801561017f57600080fd5b50610188610437565b60405161019f9b9a9998979695949392919061201d565b60405180910390f35b3480156101b457600080fd5b506101bd6109af565b6040516101ca9190612107565b60405180910390f35b6101db6109b5565b005b3480156101e957600080fd5b5061020460048036038101906101ff9190611d2f565b610a73565b005b34801561021257600080fd5b5061021b610c96565b60405161022d96959493929190611f92565b60405180910390f35b34801561024257600080fd5b5061024b610ff0565b6040516102589190612107565b60405180910390f35b34801561026d57600080fd5b50610276610ffd565b60405161028896959493929190611f92565b60405180910390f35b34801561029d57600080fd5b506102a6611380565b6040516102b39190611f77565b60405180910390f35b3480156102c857600080fd5b506102e360048036038101906102de9190611ecd565b611393565b6040516102f09190612107565b60405180910390f35b34801561030557600080fd5b50610320600480360381019061031b9190611c16565b6113b7565b005b34801561032e57600080fd5b506103376114f7565b60405161034e9b9a9998979695949392919061201d565b60405180910390f35b6001818154811061036757600080fd5b906000526020600020016000915054906101000a900473ffffffffffffffffffffffffffffffffffffffff1681565b60008054906101000a900473ffffffffffffffffffffffffffffffffffffffff1681565b60008054906101000a900473ffffffffffffffffffffffffffffffffffffffff1673ffffffffffffffffffffffffffffffffffffffff163373ffffffffffffffffffffffffffffffffffffffff161461041257600080fd5b806003819055506001600460006101000a81548160ff02191690831515021790555050565b606080606080606080606080606060008060056000016005600101600560020160056003016005600401600580016005600601600560070160056008016005600901546005600a0160009054906101000a900473ffffffffffffffffffffffffffffffffffffffff168a80546104ac90612229565b80601f01602080910402602001604051908101604052809291908181526020018280546104d890612229565b80156105255780601f106104fa57610100808354040283529160200191610525565b820191906000526020600020905b81548152906001019060200180831161050857829003601f168201915b50505050509a5089805461053890612229565b80601f016020809104026020016040519081016040528092919081815260200182805461056490612229565b80156105b15780601f10610586576101008083540402835291602001916105b1565b820191906000526020600020905b81548152906001019060200180831161059457829003601f168201915b505050505099508880546105c490612229565b80601f01602080910402602001604051908101604052809291908181526020018280546105f090612229565b801561063d5780601f106106125761010080835404028352916020019161063d565b820191906000526020600020905b81548152906001019060200180831161062057829003601f168201915b5050505050985087805461065090612229565b80601f016020809104026020016040519081016040528092919081815260200182805461067c90612229565b80156106c95780601f1061069e576101008083540402835291602001916106c9565b820191906000526020600020905b8154815290600101906020018083116106ac57829003601f168201915b505050505097508680546106dc90612229565b80601f016020809104026020016040519081016040528092919081815260200182805461070890612229565b80156107555780601f1061072a57610100808354040283529160200191610755565b820191906000526020600020905b81548152906001019060200180831161073857829003601f168201915b5050505050965085805461076890612229565b80601f016020809104026020016040519081016040528092919081815260200182805461079490612229565b80156107e15780601f106107b6576101008083540402835291602001916107e1565b820191906000526020600020905b8154815290600101906020018083116107c457829003601f168201915b505050505095508480546107f490612229565b80601f016020809104026020016040519081016040528092919081815260200182805461082090612229565b801561086d5780601f106108425761010080835404028352916020019161086d565b820191906000526020600020905b81548152906001019060200180831161085057829003601f168201915b5050505050945083805461088090612229565b80601f01602080910402602001604051908101604052809291908181526020018280546108ac90612229565b80156108f95780601f106108ce576101008083540402835291602001916108f9565b820191906000526020600020905b8154815290600101906020018083116108dc57829003601f168201915b5050505050935082805461090c90612229565b80601f016020809104026020016040519081016040528092919081815260200182805461093890612229565b80156109855780601f1061095a57610100808354040283529160200191610985565b820191906000526020600020905b81548152906001019060200180831161096857829003601f168201915b505050505092509a509a509a509a509a509a509a509a509a509a509a50909192939495969798999a565b60035481565b600460009054906101000a900460ff166109ce57600080fd5b6003543410156109dd57600080fd5b60008060009054906101000a900473ffffffffffffffffffffffffffffffffffffffff169050610a0c33611a27565b8073ffffffffffffffffffffffffffffffffffffffff166108fc6003549081150290604051600060405180830381858888f19350505050158015610a54573d6000803e3d6000fd5b506000600460006101000a81548160ff02191690831515021790555050565b60008054906101000a900473ffffffffffffffffffffffffffffffffffffffff1673ffffffffffffffffffffffffffffffffffffffff163373ffffffffffffffffffffffffffffffffffffffff1614610acb57600080fd5b6040518061016001604052808a81526020018981526020018881526020018781526020018681526020018581526020018481526020018381526020018281526020014281526020013373ffffffffffffffffffffffffffffffffffffffff1681525060056000820151816000019080519060200190610b4b929190611af6565b506020820151816001019080519060200190610b68929190611af6565b506040820151816002019080519060200190610b85929190611af6565b506060820151816003019080519060200190610ba2929190611af6565b506080820151816004019080519060200190610bbf929190611af6565b5060a0820151816005019080519060200190610bdc929190611af6565b5060c0820151816006019080519060200190610bf9929190611af6565b5060e0820151816007019080519060200190610c16929190611af6565b50610100820151816008019080519060200190610c34929190611af6565b50610120820151816009015561014082015181600a0160006101000a81548173ffffffffffffffffffffffffffffffffffffffff021916908373ffffffffffffffffffffffffffffffffffffffff160217905550905050505050505050505050565b6010806000018054610ca790612229565b80601f0160208091040260200160405190810160405280929190818152602001828054610cd390612229565b8015610d205780601f10610cf557610100808354040283529160200191610d20565b820191906000526020600020905b815481529060010190602001808311610d0357829003601f168201915b505050505090806001018054610d3590612229565b80601f0160208091040260200160405190810160405280929190818152602001828054610d6190612229565b8015610dae5780601f10610d8357610100808354040283529160200191610dae565b820191906000526020600020905b815481529060010190602001808311610d9157829003601f168201915b505050505090806002018054610dc390612229565b80601f0160208091040260200160405190810160405280929190818152602001828054610def90612229565b8015610e3c5780601f10610e1157610100808354040283529160200191610e3c565b820191906000526020600020905b815481529060010190602001808311610e1f57829003601f168201915b505050505090806003018054610e5190612229565b80601f0160208091040260200160405190810160405280929190818152602001828054610e7d90612229565b8015610eca5780601f10610e9f57610100808354040283529160200191610eca565b820191906000526020600020905b815481529060010190602001808311610ead57829003601f168201915b505050505090806004018054610edf90612229565b80601f0160208091040260200160405190810160405280929190818152602001828054610f0b90612229565b8015610f585780601f10610f2d57610100808354040283529160200191610f58565b820191906000526020600020905b815481529060010190602001808311610f3b57829003601f168201915b505050505090806005018054610f6d90612229565b80601f0160208091040260200160405190810160405280929190818152602001828054610f9990612229565b8015610fe65780601f10610fbb57610100808354040283529160200191610fe6565b820191906000526020600020905b815481529060010190602001808311610fc957829003601f168201915b5050505050905086565b6000600180549050905090565b60608060608060608060106005016010600001601060010160106002016010600301601060040185805461103090612229565b80601f016020809104026020016040519081016040528092919081815260200182805461105c90612229565b80156110a95780601f1061107e576101008083540402835291602001916110a9565b820191906000526020600020905b81548152906001019060200180831161108c57829003601f168201915b505050505095508480546110bc90612229565b80601f01602080910402602001604051908101604052809291908181526020018280546110e890612229565b80156111355780601f1061110a57610100808354040283529160200191611135565b820191906000526020600020905b81548152906001019060200180831161111857829003601f168201915b5050505050945083805461114890612229565b80601f016020809104026020016040519081016040528092919081815260200182805461117490612229565b80156111c15780601f10611196576101008083540402835291602001916111c1565b820191906000526020600020905b8154815290600101906020018083116111a457829003601f168201915b505050505093508280546111d490612229565b80601f016020809104026020016040519081016040528092919081815260200182805461120090612229565b801561124d5780601f106112225761010080835404028352916020019161124d565b820191906000526020600020905b81548152906001019060200180831161123057829003601f168201915b5050505050925081805461126090612229565b80601f016020809104026020016040519081016040528092919081815260200182805461128c90612229565b80156112d95780601f106112ae576101008083540402835291602001916112d9565b820191906000526020600020905b8154815290600101906020018083116112bc57829003601f168201915b505050505091508080546112ec90612229565b80601f016020809104026020016040519081016040528092919081815260200182805461131890612229565b80156113655780601f1061133a57610100808354040283529160200191611365565b820191906000526020600020905b81548152906001019060200180831161134857829003601f168201915b50505050509050955095509550955095509550909192939495565b600460009054906101000a900460ff1681565b600281815481106113a357600080fd5b906000526020600020016000915090505481565b60008054906101000a900473ffffffffffffffffffffffffffffffffffffffff1673ffffffffffffffffffffffffffffffffffffffff163373ffffffffffffffffffffffffffffffffffffffff161461140f57600080fd5b6040518060c00160405280878152602001868152602001858152602001848152602001838152602001828152506010600082015181600001908051906020019061145a929190611af6565b506020820151816001019080519060200190611477929190611af6565b506040820151816002019080519060200190611494929190611af6565b5060608201518160030190805190602001906114b1929190611af6565b5060808201518160040190805190602001906114ce929190611af6565b5060a08201518160050190805190602001906114eb929190611af6565b50905050505050505050565b600580600001805461150890612229565b80601f016020809104026020016040519081016040528092919081815260200182805461153490612229565b80156115815780601f1061155657610100808354040283529160200191611581565b820191906000526020600020905b81548152906001019060200180831161156457829003601f168201915b50505050509080600101805461159690612229565b80601f01602080910402602001604051908101604052809291908181526020018280546115c290612229565b801561160f5780601f106115e45761010080835404028352916020019161160f565b820191906000526020600020905b8154815290600101906020018083116115f257829003601f168201915b50505050509080600201805461162490612229565b80601f016020809104026020016040519081016040528092919081815260200182805461165090612229565b801561169d5780601f106116725761010080835404028352916020019161169d565b820191906000526020600020905b81548152906001019060200180831161168057829003601f168201915b5050505050908060030180546116b290612229565b80601f01602080910402602001604051908101604052809291908181526020018280546116de90612229565b801561172b5780601f106117005761010080835404028352916020019161172b565b820191906000526020600020905b81548152906001019060200180831161170e57829003601f168201915b50505050509080600401805461174090612229565b80601f016020809104026020016040519081016040528092919081815260200182805461176c90612229565b80156117b95780601f1061178e576101008083540402835291602001916117b9565b820191906000526020600020905b81548152906001019060200180831161179c57829003601f168201915b5050505050908060050180546117ce90612229565b80601f01602080910402602001604051908101604052809291908181526020018280546117fa90612229565b80156118475780601f1061181c57610100808354040283529160200191611847565b820191906000526020600020905b81548152906001019060200180831161182a57829003601f168201915b50505050509080600601805461185c90612229565b80601f016020809104026020016040519081016040528092919081815260200182805461188890612229565b80156118d55780601f106118aa576101008083540402835291602001916118d5565b820191906000526020600020905b8154815290600101906020018083116118b857829003601f168201915b5050505050908060070180546118ea90612229565b80601f016020809104026020016040519081016040528092919081815260200182805461191690612229565b80156119635780601f1061193857610100808354040283529160200191611963565b820191906000526020600020905b81548152906001019060200180831161194657829003601f168201915b50505050509080600801805461197890612229565b80601f01602080910402602001604051908101604052809291908181526020018280546119a490612229565b80156119f15780601f106119c6576101008083540402835291602001916119f1565b820191906000526020600020905b8154815290600101906020018083116119d457829003601f168201915b50505050509080600901549080600a0160009054906101000a900473ffffffffffffffffffffffffffffffffffffffff1690508b565b806000806101000a81548173ffffffffffffffffffffffffffffffffffffffff021916908373ffffffffffffffffffffffffffffffffffffffff1602179055506001819080600181540180825580915050600190039060005260206000200160009091909190916101000a81548173ffffffffffffffffffffffffffffffffffffffff021916908373ffffffffffffffffffffffffffffffffffffffff160217905550600242908060018154018082558091505060019003906000526020600020016000909190919091505550565b828054611b0290612229565b90600052602060002090601f016020900481019282611b245760008555611b6b565b82601f10611b3d57805160ff1916838001178555611b6b565b82800160010185558215611b6b579182015b82811115611b6a578251825591602001919060010190611b4f565b5b509050611b789190611b7c565b5090565b5b80821115611b95576000816000905550600101611b7d565b5090565b6000611bac611ba784612153565b612122565b905082815260208101848484011115611bc457600080fd5b611bcf8482856121e7565b509392505050565b600082601f830112611be857600080fd5b8135611bf8848260208601611b99565b91505092915050565b600081359050611c10816122ca565b92915050565b60008060008060008060c08789031215611c2f57600080fd5b600087013567ffffffffffffffff811115611c4957600080fd5b611c5589828a01611bd7565b965050602087013567ffffffffffffffff811115611c7257600080fd5b611c7e89828a01611bd7565b955050604087013567ffffffffffffffff811115611c9b57600080fd5b611ca789828a01611bd7565b945050606087013567ffffffffffffffff811115611cc457600080fd5b611cd089828a01611bd7565b935050608087013567ffffffffffffffff811115611ced57600080fd5b611cf989828a01611bd7565b92505060a087013567ffffffffffffffff811115611d1657600080fd5b611d2289828a01611bd7565b9150509295509295509295565b60008060008060008060008060006101208a8c031215611d4e57600080fd5b60008a013567ffffffffffffffff811115611d6857600080fd5b611d748c828d01611bd7565b99505060208a013567ffffffffffffffff811115611d9157600080fd5b611d9d8c828d01611bd7565b98505060408a013567ffffffffffffffff811115611dba57600080fd5b611dc68c828d01611bd7565b97505060608a013567ffffffffffffffff811115611de357600080fd5b611def8c828d01611bd7565b96505060808a013567ffffffffffffffff811115611e0c57600080fd5b611e188c828d01611bd7565b95505060a08a013567ffffffffffffffff811115611e3557600080fd5b611e418c828d01611bd7565b94505060c08a013567ffffffffffffffff811115611e5e57600080fd5b611e6a8c828d01611bd7565b93505060e08a013567ffffffffffffffff811115611e8757600080fd5b611e938c828d01611bd7565b9250506101008a013567ffffffffffffffff811115611eb157600080fd5b611ebd8c828d01611bd7565b9150509295985092959850929598565b600060208284031215611edf57600080fd5b6000611eed84828501611c01565b91505092915050565b611eff8161219f565b82525050565b611f0e816121b1565b82525050565b6000611f1f82612183565b611f29818561218e565b9350611f398185602086016121f6565b611f42816122b9565b840191505092915050565b611f56816121dd565b82525050565b6000602082019050611f716000830184611ef6565b92915050565b6000602082019050611f8c6000830184611f05565b92915050565b600060c0820190508181036000830152611fac8189611f14565b90508181036020830152611fc08188611f14565b90508181036040830152611fd48187611f14565b90508181036060830152611fe88186611f14565b90508181036080830152611ffc8185611f14565b905081810360a08301526120108184611f14565b9050979650505050505050565b6000610160820190508181036000830152612038818e611f14565b9050818103602083015261204c818d611f14565b90508181036040830152612060818c611f14565b90508181036060830152612074818b611f14565b90508181036080830152612088818a611f14565b905081810360a083015261209c8189611f14565b905081810360c08301526120b08188611f14565b905081810360e08301526120c48187611f14565b90508181036101008301526120d98186611f14565b90506120e9610120830185611f4d565b6120f7610140830184611ef6565b9c9b505050505050505050505050565b600060208201905061211c6000830184611f4d565b92915050565b6000604051905081810181811067ffffffffffffffff821117156121495761214861228a565b5b8060405250919050565b600067ffffffffffffffff82111561216e5761216d61228a565b5b601f19601f8301169050602081019050919050565b600081519050919050565b600082825260208201905092915050565b60006121aa826121bd565b9050919050565b60008115159050919050565b600073ffffffffffffffffffffffffffffffffffffffff82169050919050565b6000819050919050565b82818337600083830152505050565b60005b838110156122145780820151818401526020810190506121f9565b83811115612223576000848401525b50505050565b6000600282049050600182168061224157607f821691505b602082108114156122555761225461225b565b5b50919050565b7f4e487b7100000000000000000000000000000000000000000000000000000000600052602260045260246000fd5b7f4e487b7100000000000000000000000000000000000000000000000000000000600052604160045260246000fd5b6000601f19601f8301169050919050565b6122d3816121dd565b81146122de57600080fd5b5056fea264697066735822122081e5c90c744f76c1de9812caa5f8b486cbaf9254b87055e74991282d699c589264736f6c63430008000033",
  "immutableReferences": {},
  "source": "// SPDX-License-Identifier: MIT\r\npragma solidity ^0.8.0;\r\n\r\ncontract VehiculoContract {\r\n    address public propietario;\r\n    address[] public historialPropietarios;\r\n    uint256[] public fechaEventos;\r\n    uint256 public precioVenta;\r\n    bool public enVenta;\r\n\r\n    struct DatosBasicosVehiculo {\r\n        string placa;\r\n        string numeroMotor;\r\n        string numeroChasis;\r\n        string VIN;\r\n        string marca;\r\n        string clase;\r\n        string linea;\r\n        string modelo;\r\n        string color;\r\n        uint256 fechaMatricula;\r\n        address direccionCuentaOT;\r\n    }\r\n\r\n    struct DetallesVehiculo {\r\n        string cilindraje;\r\n        string potencia;\r\n        string capacidad;\r\n        string servicio;\r\n        string carroceria;\r\n        string combustible;\r\n    }\r\n\r\n    DatosBasicosVehiculo public datosBasicosVehiculo;\r\n    DetallesVehiculo public detallesVehiculo;\r\n\r\n    modifier onlyOwner() {\r\n        require(msg.sender == propietario);\r\n        _;\r\n    }\r\n\r\n    constructor() {\r\n        propietario = msg.sender;\r\n        historialPropietarios.push(msg.sender);\r\n        fechaEventos.push(block.timestamp);\r\n    }\r\n\r\n    function cambiarPropietario(address nuevoPropietario) internal {\r\n        propietario = nuevoPropietario;\r\n        historialPropietarios.push(nuevoPropietario);\r\n        fechaEventos.push(block.timestamp);\r\n    }\r\n\r\n    function ponerEnVenta(uint256 _precioVenta) public onlyOwner {\r\n        precioVenta = _precioVenta;\r\n        enVenta = true;\r\n    }\r\n\r\n    function comprarVehiculo() public payable {\r\n        require(enVenta);\r\n        require(msg.value >= precioVenta);\r\n\r\n        address propietarioActual = propietario;\r\n\r\n        cambiarPropietario(msg.sender);\r\n\r\n        payable(propietarioActual).transfer(precioVenta);\r\n\r\n        enVenta = false;\r\n    }\r\n\r\n    function llenarDatosBasicosVehiculo(\r\n        string memory _placa,\r\n        string memory _numeroMotor,\r\n        string memory _numeroChasis,\r\n        string memory _VIN,\r\n        string memory _marca,\r\n        string memory _clase,\r\n        string memory _linea,\r\n        string memory _modelo,\r\n        string memory _color\r\n    ) public onlyOwner {\r\n        datosBasicosVehiculo = DatosBasicosVehiculo({\r\n            placa: _placa,\r\n            numeroMotor: _numeroMotor,\r\n            numeroChasis: _numeroChasis,\r\n            VIN: _VIN,\r\n            marca: _marca,\r\n            clase: _clase,\r\n            linea: _linea,\r\n            modelo: _modelo,\r\n            color: _color,\r\n            fechaMatricula: block.timestamp,\r\n            direccionCuentaOT: msg.sender\r\n        });\r\n    }\r\n\r\n    function llenarDetallesVehiculo(\r\n        string memory _cilindraje,\r\n        string memory _potencia,\r\n        string memory _capacidad,\r\n        string memory _servicio,\r\n        string memory _carroceria,\r\n        string memory _combustible\r\n    ) public onlyOwner {\r\n        detallesVehiculo = DetallesVehiculo({\r\n            cilindraje: _cilindraje,\r\n            potencia: _potencia,\r\n            capacidad: _capacidad,\r\n            servicio: _servicio,\r\n            carroceria: _carroceria,\r\n            combustible: _combustible\r\n        });\r\n    }\r\n\r\n    function obtenerDatosBasicosVehiculo() public view returns (\r\n        string memory, string memory, string memory, string memory, string memory,\r\n        string memory, string memory, string memory, string memory, uint256, address\r\n    ) {\r\n        return (\r\n            datosBasicosVehiculo.placa,\r\n            datosBasicosVehiculo.numeroMotor,\r\n            datosBasicosVehiculo.numeroChasis,\r\n            datosBasicosVehiculo.VIN,\r\n            datosBasicosVehiculo.marca,\r\n            datosBasicosVehiculo.clase,\r\n            datosBasicosVehiculo.linea,\r\n            datosBasicosVehiculo.modelo,\r\n            datosBasicosVehiculo.color,\r\n            datosBasicosVehiculo.fechaMatricula,\r\n            datosBasicosVehiculo.direccionCuentaOT\r\n        );\r\n    }\r\n\r\n    function obtenerDetallesVehiculo() public view returns (\r\n        string memory, string memory, string memory, string memory, string memory, string memory\r\n    ) {\r\n        return (\r\n            detallesVehiculo.combustible,\r\n            detallesVehiculo.cilindraje,\r\n            detallesVehiculo.potencia,\r\n            detallesVehiculo.capacidad,\r\n            detallesVehiculo.servicio,\r\n            detallesVehiculo.carroceria\r\n        );\r\n    }\r\n\r\n    function obtenerTamanoHistorial() public view returns (uint256) {\r\n        return historialPropietarios.length;\r\n    }\r\n}",
  "sourcePath": "D:\\Miguel\\Documentos\\Maestra\\Tesis\\DApps\\AngularGanacheTemplate\\contracts\\VehiculoContract.sol",
  "compiler": {
    "name": "solc",
    "version": "0.8.0+commit.c7dfd78e.Emscripten.clang"
  },
  "schemaVersion": "3.4.16",
  "updatedAt": "2024-03-12T16:12:52.248Z",
  "devdoc": {
    "kind": "dev",
    "methods": {},
    "version": 1
  },
  "userdoc": {
    "kind": "user",
    "methods": {},
    "version": 1
  }
}