{
  "contractName": "VehiculoContract",
  "abi": [
    {
      "inputs": [],
      "stateMutability": "nonpayable",
      "type": "constructor"
    },
    {
      "inputs": [],
      "name": "datosBasicosVehiculo",
      "outputs": [
        {
          "internalType": "string",
          "name": "placa",
          "type": "string"
        },
        {
          "internalType": "string",
          "name": "numeroMotor",
          "type": "string"
        },
        {
          "internalType": "string",
          "name": "numeroChasis",
          "type": "string"
        },
        {
          "internalType": "string",
          "name": "VIN",
          "type": "string"
        },
        {
          "internalType": "string",
          "name": "marca",
          "type": "string"
        },
        {
          "internalType": "string",
          "name": "clase",
          "type": "string"
        },
        {
          "internalType": "string",
          "name": "linea",
          "type": "string"
        },
        {
          "internalType": "string",
          "name": "modelo",
          "type": "string"
        },
        {
          "internalType": "string",
          "name": "color",
          "type": "string"
        },
        {
          "internalType": "uint256",
          "name": "fechaMatricula",
          "type": "uint256"
        },
        {
          "internalType": "address",
          "name": "direccionCuentaOT",
          "type": "address"
        }
      ],
      "stateMutability": "view",
      "type": "function",
      "constant": true
    },
    {
      "inputs": [],
      "name": "detallesVehiculo",
      "outputs": [
        {
          "internalType": "string",
          "name": "cilindraje",
          "type": "string"
        },
        {
          "internalType": "string",
          "name": "potencia",
          "type": "string"
        },
        {
          "internalType": "string",
          "name": "capacidad",
          "type": "string"
        },
        {
          "internalType": "string",
          "name": "servicio",
          "type": "string"
        },
        {
          "internalType": "string",
          "name": "carroceria",
          "type": "string"
        },
        {
          "internalType": "string",
          "name": "combustible",
          "type": "string"
        }
      ],
      "stateMutability": "view",
      "type": "function",
      "constant": true
    },
    {
      "inputs": [],
      "name": "ownerData",
      "outputs": [
        {
          "internalType": "string",
          "name": "name",
          "type": "string"
        },
        {
          "internalType": "uint256",
          "name": "cedula",
          "type": "uint256"
        }
      ],
      "stateMutability": "view",
      "type": "function",
      "constant": true
    },
    {
      "inputs": [
        {
          "internalType": "uint256",
          "name": "",
          "type": "uint256"
        }
      ],
      "name": "ownershipHistory",
      "outputs": [
        {
          "internalType": "address",
          "name": "previousOwner",
          "type": "address"
        },
        {
          "internalType": "uint256",
          "name": "timestamp",
          "type": "uint256"
        }
      ],
      "stateMutability": "view",
      "type": "function",
      "constant": true
    },
    {
      "inputs": [],
      "name": "propietario",
      "outputs": [
        {
          "internalType": "address",
          "name": "",
          "type": "address"
        }
      ],
      "stateMutability": "view",
      "type": "function",
      "constant": true
    },
    {
      "inputs": [
        {
          "internalType": "string",
          "name": "_placa",
          "type": "string"
        },
        {
          "internalType": "string",
          "name": "_numeroMotor",
          "type": "string"
        },
        {
          "internalType": "string",
          "name": "_numeroChasis",
          "type": "string"
        },
        {
          "internalType": "string",
          "name": "_VIN",
          "type": "string"
        },
        {
          "internalType": "string",
          "name": "_marca",
          "type": "string"
        },
        {
          "internalType": "string",
          "name": "_clase",
          "type": "string"
        },
        {
          "internalType": "string",
          "name": "_linea",
          "type": "string"
        },
        {
          "internalType": "string",
          "name": "_modelo",
          "type": "string"
        },
        {
          "internalType": "string",
          "name": "_color",
          "type": "string"
        }
      ],
      "name": "llenarDatosBasicosVehiculo",
      "outputs": [],
      "stateMutability": "nonpayable",
      "type": "function"
    },
    {
      "inputs": [
        {
          "internalType": "string",
          "name": "_cilindraje",
          "type": "string"
        },
        {
          "internalType": "string",
          "name": "_potencia",
          "type": "string"
        },
        {
          "internalType": "string",
          "name": "_capacidad",
          "type": "string"
        },
        {
          "internalType": "string",
          "name": "_servicio",
          "type": "string"
        },
        {
          "internalType": "string",
          "name": "_carroceria",
          "type": "string"
        },
        {
          "internalType": "string",
          "name": "_combustible",
          "type": "string"
        }
      ],
      "name": "llenarDetallesVehiculo",
      "outputs": [],
      "stateMutability": "nonpayable",
      "type": "function"
    },
    {
      "inputs": [
        {
          "internalType": "string",
          "name": "_name",
          "type": "string"
        },
        {
          "internalType": "uint256",
          "name": "_cedula",
          "type": "uint256"
        }
      ],
      "name": "setOwnerInfo",
      "outputs": [],
      "stateMutability": "nonpayable",
      "type": "function"
    },
    {
      "inputs": [],
      "name": "getOwnershipHistoryCount",
      "outputs": [
        {
          "internalType": "uint256",
          "name": "",
          "type": "uint256"
        }
      ],
      "stateMutability": "view",
      "type": "function",
      "constant": true
    },
    {
      "inputs": [],
      "name": "obtenerDatosBasicosVehiculo",
      "outputs": [
        {
          "internalType": "string",
          "name": "",
          "type": "string"
        },
        {
          "internalType": "string",
          "name": "",
          "type": "string"
        },
        {
          "internalType": "string",
          "name": "",
          "type": "string"
        },
        {
          "internalType": "string",
          "name": "",
          "type": "string"
        },
        {
          "internalType": "string",
          "name": "",
          "type": "string"
        },
        {
          "internalType": "string",
          "name": "",
          "type": "string"
        },
        {
          "internalType": "string",
          "name": "",
          "type": "string"
        },
        {
          "internalType": "string",
          "name": "",
          "type": "string"
        },
        {
          "internalType": "string",
          "name": "",
          "type": "string"
        },
        {
          "internalType": "uint256",
          "name": "",
          "type": "uint256"
        },
        {
          "internalType": "address",
          "name": "",
          "type": "address"
        }
      ],
      "stateMutability": "view",
      "type": "function",
      "constant": true
    },
    {
      "inputs": [],
      "name": "obtenerDetallesVehiculo",
      "outputs": [
        {
          "internalType": "string",
          "name": "",
          "type": "string"
        },
        {
          "internalType": "string",
          "name": "",
          "type": "string"
        },
        {
          "internalType": "string",
          "name": "",
          "type": "string"
        },
        {
          "internalType": "string",
          "name": "",
          "type": "string"
        },
        {
          "internalType": "string",
          "name": "",
          "type": "string"
        },
        {
          "internalType": "string",
          "name": "",
          "type": "string"
        }
      ],
      "stateMutability": "view",
      "type": "function",
      "constant": true
    }
  ],
  "bytecode": "0x608060405234801561001057600080fd5b50336000806101000a81548173ffffffffffffffffffffffffffffffffffffffff021916908373ffffffffffffffffffffffffffffffffffffffff160217905550612391806100606000396000f3fe608060405234801561001057600080fd5b50600436106100a95760003560e01c806387069b091161007157806387069b091461015f578063ac51169114610182578063c511e52b1461019e578063d7079829146101c1578063f516c7e3146101e0578063ff43bc97146101fc576100a9565b806319159f20146100ae5780633c4f81cd146100df5780634ef2c060146100fd5780636f8db8901461012557806373a416bb14610141575b600080fd5b6100c860048036038101906100c39190611e9e565b610224565b6040516100d6929190611f9f565b60405180910390f35b6100e7610278565b6040516100f49190611f84565b60405180910390f35b61010561029c565b60405161011c9b9a99989796959493929190612053565b60405180910390f35b61013f600480360381019061013a9190611cac565b610814565b005b610149610a6d565b604051610156919061218d565b60405180910390f35b610167610a7a565b60405161017996959493929190611fc8565b60405180910390f35b61019c60048036038101906101979190611e4a565b610dd4565b005b6101a6610fb0565b6040516101b896959493929190611fc8565b60405180910390f35b6101c9611333565b6040516101d792919061213d565b60405180910390f35b6101fa60048036038101906101f59190611b93565b6113cd565b005b610204611543565b60405161021b9b9a99989796959493929190612053565b60405180910390f35b6014818154811061023457600080fd5b90600052602060002090600202016000915090508060000160009054906101000a900473ffffffffffffffffffffffffffffffffffffffff16908060010154905082565b60008054906101000a900473ffffffffffffffffffffffffffffffffffffffff1681565b606080606080606080606080606060008060016000016001800160016002016001600301600160040160016005016001600601600160070160016008016001600901546001600a0160009054906101000a900473ffffffffffffffffffffffffffffffffffffffff168a8054610311906122a3565b80601f016020809104026020016040519081016040528092919081815260200182805461033d906122a3565b801561038a5780601f1061035f5761010080835404028352916020019161038a565b820191906000526020600020905b81548152906001019060200180831161036d57829003601f168201915b50505050509a5089805461039d906122a3565b80601f01602080910402602001604051908101604052809291908181526020018280546103c9906122a3565b80156104165780601f106103eb57610100808354040283529160200191610416565b820191906000526020600020905b8154815290600101906020018083116103f957829003601f168201915b50505050509950888054610429906122a3565b80601f0160208091040260200160405190810160405280929190818152602001828054610455906122a3565b80156104a25780601f10610477576101008083540402835291602001916104a2565b820191906000526020600020905b81548152906001019060200180831161048557829003601f168201915b505050505098508780546104b5906122a3565b80601f01602080910402602001604051908101604052809291908181526020018280546104e1906122a3565b801561052e5780601f106105035761010080835404028352916020019161052e565b820191906000526020600020905b81548152906001019060200180831161051157829003601f168201915b50505050509750868054610541906122a3565b80601f016020809104026020016040519081016040528092919081815260200182805461056d906122a3565b80156105ba5780601f1061058f576101008083540402835291602001916105ba565b820191906000526020600020905b81548152906001019060200180831161059d57829003601f168201915b505050505096508580546105cd906122a3565b80601f01602080910402602001604051908101604052809291908181526020018280546105f9906122a3565b80156106465780601f1061061b57610100808354040283529160200191610646565b820191906000526020600020905b81548152906001019060200180831161062957829003601f168201915b50505050509550848054610659906122a3565b80601f0160208091040260200160405190810160405280929190818152602001828054610685906122a3565b80156106d25780601f106106a7576101008083540402835291602001916106d2565b820191906000526020600020905b8154815290600101906020018083116106b557829003601f168201915b505050505094508380546106e5906122a3565b80601f0160208091040260200160405190810160405280929190818152602001828054610711906122a3565b801561075e5780601f106107335761010080835404028352916020019161075e565b820191906000526020600020905b81548152906001019060200180831161074157829003601f168201915b50505050509350828054610771906122a3565b80601f016020809104026020016040519081016040528092919081815260200182805461079d906122a3565b80156107ea5780601f106107bf576101008083540402835291602001916107ea565b820191906000526020600020905b8154815290600101906020018083116107cd57829003601f168201915b505050505092509a509a509a509a509a509a509a509a509a509a509a50909192939495969798999a565b60008054906101000a900473ffffffffffffffffffffffffffffffffffffffff1673ffffffffffffffffffffffffffffffffffffffff163373ffffffffffffffffffffffffffffffffffffffff16146108a2576040517f08c379a00000000000000000000000000000000000000000000000000000000081526004016108999061216d565b60405180910390fd5b6040518061016001604052808a81526020018981526020018881526020018781526020018681526020018581526020018481526020018381526020018281526020014281526020013373ffffffffffffffffffffffffffffffffffffffff1681525060016000820151816000019080519060200190610922929190611a73565b50602082015181600101908051906020019061093f929190611a73565b50604082015181600201908051906020019061095c929190611a73565b506060820151816003019080519060200190610979929190611a73565b506080820151816004019080519060200190610996929190611a73565b5060a08201518160050190805190602001906109b3929190611a73565b5060c08201518160060190805190602001906109d0929190611a73565b5060e08201518160070190805190602001906109ed929190611a73565b50610100820151816008019080519060200190610a0b929190611a73565b50610120820151816009015561014082015181600a0160006101000a81548173ffffffffffffffffffffffffffffffffffffffff021916908373ffffffffffffffffffffffffffffffffffffffff160217905550905050505050505050505050565b6000601480549050905090565b600c806000018054610a8b906122a3565b80601f0160208091040260200160405190810160405280929190818152602001828054610ab7906122a3565b8015610b045780601f10610ad957610100808354040283529160200191610b04565b820191906000526020600020905b815481529060010190602001808311610ae757829003601f168201915b505050505090806001018054610b19906122a3565b80601f0160208091040260200160405190810160405280929190818152602001828054610b45906122a3565b8015610b925780601f10610b6757610100808354040283529160200191610b92565b820191906000526020600020905b815481529060010190602001808311610b7557829003601f168201915b505050505090806002018054610ba7906122a3565b80601f0160208091040260200160405190810160405280929190818152602001828054610bd3906122a3565b8015610c205780601f10610bf557610100808354040283529160200191610c20565b820191906000526020600020905b815481529060010190602001808311610c0357829003601f168201915b505050505090806003018054610c35906122a3565b80601f0160208091040260200160405190810160405280929190818152602001828054610c61906122a3565b8015610cae5780601f10610c8357610100808354040283529160200191610cae565b820191906000526020600020905b815481529060010190602001808311610c9157829003601f168201915b505050505090806004018054610cc3906122a3565b80601f0160208091040260200160405190810160405280929190818152602001828054610cef906122a3565b8015610d3c5780601f10610d1157610100808354040283529160200191610d3c565b820191906000526020600020905b815481529060010190602001808311610d1f57829003601f168201915b505050505090806005018054610d51906122a3565b80601f0160208091040260200160405190810160405280929190818152602001828054610d7d906122a3565b8015610dca5780601f10610d9f57610100808354040283529160200191610dca565b820191906000526020600020905b815481529060010190602001808311610dad57829003601f168201915b5050505050905086565b60008054906101000a900473ffffffffffffffffffffffffffffffffffffffff1673ffffffffffffffffffffffffffffffffffffffff163373ffffffffffffffffffffffffffffffffffffffff1614610e62576040517f08c379a0000000000000000000000000000000000000000000000000000000008152600401610e599061216d565b60405180910390fd5b6014604051806040016040528060008054906101000a900473ffffffffffffffffffffffffffffffffffffffff1673ffffffffffffffffffffffffffffffffffffffff16815260200142815250908060018154018082558091505060019003906000526020600020906002020160009091909190915060008201518160000160006101000a81548173ffffffffffffffffffffffffffffffffffffffff021916908373ffffffffffffffffffffffffffffffffffffffff16021790555060208201518160010155505060405180604001604052808381526020018281525060126000820151816000019080519060200190610f5e929190611a73565b5060208201518160010155905050336000806101000a81548173ffffffffffffffffffffffffffffffffffffffff021916908373ffffffffffffffffffffffffffffffffffffffff1602179055505050565b606080606080606080600c600001600c600101600c600201600c600301600c600401600c600501858054610fe3906122a3565b80601f016020809104026020016040519081016040528092919081815260200182805461100f906122a3565b801561105c5780601f106110315761010080835404028352916020019161105c565b820191906000526020600020905b81548152906001019060200180831161103f57829003601f168201915b5050505050955084805461106f906122a3565b80601f016020809104026020016040519081016040528092919081815260200182805461109b906122a3565b80156110e85780601f106110bd576101008083540402835291602001916110e8565b820191906000526020600020905b8154815290600101906020018083116110cb57829003601f168201915b505050505094508380546110fb906122a3565b80601f0160208091040260200160405190810160405280929190818152602001828054611127906122a3565b80156111745780601f1061114957610100808354040283529160200191611174565b820191906000526020600020905b81548152906001019060200180831161115757829003601f168201915b50505050509350828054611187906122a3565b80601f01602080910402602001604051908101604052809291908181526020018280546111b3906122a3565b80156112005780601f106111d557610100808354040283529160200191611200565b820191906000526020600020905b8154815290600101906020018083116111e357829003601f168201915b50505050509250818054611213906122a3565b80601f016020809104026020016040519081016040528092919081815260200182805461123f906122a3565b801561128c5780601f106112615761010080835404028352916020019161128c565b820191906000526020600020905b81548152906001019060200180831161126f57829003601f168201915b5050505050915080805461129f906122a3565b80601f01602080910402602001604051908101604052809291908181526020018280546112cb906122a3565b80156113185780601f106112ed57610100808354040283529160200191611318565b820191906000526020600020905b8154815290600101906020018083116112fb57829003601f168201915b50505050509050955095509550955095509550909192939495565b6012806000018054611344906122a3565b80601f0160208091040260200160405190810160405280929190818152602001828054611370906122a3565b80156113bd5780601f10611392576101008083540402835291602001916113bd565b820191906000526020600020905b8154815290600101906020018083116113a057829003601f168201915b5050505050908060010154905082565b60008054906101000a900473ffffffffffffffffffffffffffffffffffffffff1673ffffffffffffffffffffffffffffffffffffffff163373ffffffffffffffffffffffffffffffffffffffff161461145b576040517f08c379a00000000000000000000000000000000000000000000000000000000081526004016114529061216d565b60405180910390fd5b6040518060c0016040528087815260200186815260200185815260200184815260200183815260200182815250600c60008201518160000190805190602001906114a6929190611a73565b5060208201518160010190805190602001906114c3929190611a73565b5060408201518160020190805190602001906114e0929190611a73565b5060608201518160030190805190602001906114fd929190611a73565b50608082015181600401908051906020019061151a929190611a73565b5060a0820151816005019080519060200190611537929190611a73565b50905050505050505050565b6001806000018054611554906122a3565b80601f0160208091040260200160405190810160405280929190818152602001828054611580906122a3565b80156115cd5780601f106115a2576101008083540402835291602001916115cd565b820191906000526020600020905b8154815290600101906020018083116115b057829003601f168201915b5050505050908060010180546115e2906122a3565b80601f016020809104026020016040519081016040528092919081815260200182805461160e906122a3565b801561165b5780601f106116305761010080835404028352916020019161165b565b820191906000526020600020905b81548152906001019060200180831161163e57829003601f168201915b505050505090806002018054611670906122a3565b80601f016020809104026020016040519081016040528092919081815260200182805461169c906122a3565b80156116e95780601f106116be576101008083540402835291602001916116e9565b820191906000526020600020905b8154815290600101906020018083116116cc57829003601f168201915b5050505050908060030180546116fe906122a3565b80601f016020809104026020016040519081016040528092919081815260200182805461172a906122a3565b80156117775780601f1061174c57610100808354040283529160200191611777565b820191906000526020600020905b81548152906001019060200180831161175a57829003601f168201915b50505050509080600401805461178c906122a3565b80601f01602080910402602001604051908101604052809291908181526020018280546117b8906122a3565b80156118055780601f106117da57610100808354040283529160200191611805565b820191906000526020600020905b8154815290600101906020018083116117e857829003601f168201915b50505050509080600501805461181a906122a3565b80601f0160208091040260200160405190810160405280929190818152602001828054611846906122a3565b80156118935780601f1061186857610100808354040283529160200191611893565b820191906000526020600020905b81548152906001019060200180831161187657829003601f168201915b5050505050908060060180546118a8906122a3565b80601f01602080910402602001604051908101604052809291908181526020018280546118d4906122a3565b80156119215780601f106118f657610100808354040283529160200191611921565b820191906000526020600020905b81548152906001019060200180831161190457829003601f168201915b505050505090806007018054611936906122a3565b80601f0160208091040260200160405190810160405280929190818152602001828054611962906122a3565b80156119af5780601f10611984576101008083540402835291602001916119af565b820191906000526020600020905b81548152906001019060200180831161199257829003601f168201915b5050505050908060080180546119c4906122a3565b80601f01602080910402602001604051908101604052809291908181526020018280546119f0906122a3565b8015611a3d5780601f10611a1257610100808354040283529160200191611a3d565b820191906000526020600020905b815481529060010190602001808311611a2057829003601f168201915b50505050509080600901549080600a0160009054906101000a900473ffffffffffffffffffffffffffffffffffffffff1690508b565b828054611a7f906122a3565b90600052602060002090601f016020900481019282611aa15760008555611ae8565b82601f10611aba57805160ff1916838001178555611ae8565b82800160010185558215611ae8579182015b82811115611ae7578251825591602001919060010190611acc565b5b509050611af59190611af9565b5090565b5b80821115611b12576000816000905550600101611afa565b5090565b6000611b29611b24846121d9565b6121a8565b905082815260208101848484011115611b4157600080fd5b611b4c848285612261565b509392505050565b600082601f830112611b6557600080fd5b8135611b75848260208601611b16565b91505092915050565b600081359050611b8d81612344565b92915050565b60008060008060008060c08789031215611bac57600080fd5b600087013567ffffffffffffffff811115611bc657600080fd5b611bd289828a01611b54565b965050602087013567ffffffffffffffff811115611bef57600080fd5b611bfb89828a01611b54565b955050604087013567ffffffffffffffff811115611c1857600080fd5b611c2489828a01611b54565b945050606087013567ffffffffffffffff811115611c4157600080fd5b611c4d89828a01611b54565b935050608087013567ffffffffffffffff811115611c6a57600080fd5b611c7689828a01611b54565b92505060a087013567ffffffffffffffff811115611c9357600080fd5b611c9f89828a01611b54565b9150509295509295509295565b60008060008060008060008060006101208a8c031215611ccb57600080fd5b60008a013567ffffffffffffffff811115611ce557600080fd5b611cf18c828d01611b54565b99505060208a013567ffffffffffffffff811115611d0e57600080fd5b611d1a8c828d01611b54565b98505060408a013567ffffffffffffffff811115611d3757600080fd5b611d438c828d01611b54565b97505060608a013567ffffffffffffffff811115611d6057600080fd5b611d6c8c828d01611b54565b96505060808a013567ffffffffffffffff811115611d8957600080fd5b611d958c828d01611b54565b95505060a08a013567ffffffffffffffff811115611db257600080fd5b611dbe8c828d01611b54565b94505060c08a013567ffffffffffffffff811115611ddb57600080fd5b611de78c828d01611b54565b93505060e08a013567ffffffffffffffff811115611e0457600080fd5b611e108c828d01611b54565b9250506101008a013567ffffffffffffffff811115611e2e57600080fd5b611e3a8c828d01611b54565b9150509295985092959850929598565b60008060408385031215611e5d57600080fd5b600083013567ffffffffffffffff811115611e7757600080fd5b611e8385828601611b54565b9250506020611e9485828601611b7e565b9150509250929050565b600060208284031215611eb057600080fd5b6000611ebe84828501611b7e565b91505092915050565b611ed081612225565b82525050565b6000611ee182612209565b611eeb8185612214565b9350611efb818560208601612270565b611f0481612333565b840191505092915050565b6000611f1c602583612214565b91507f4f6e6c7920746865206f776e65722063616e2063616c6c20746869732066756e60008301527f6374696f6e0000000000000000000000000000000000000000000000000000006020830152604082019050919050565b611f7e81612257565b82525050565b6000602082019050611f996000830184611ec7565b92915050565b6000604082019050611fb46000830185611ec7565b611fc16020830184611f75565b9392505050565b600060c0820190508181036000830152611fe28189611ed6565b90508181036020830152611ff68188611ed6565b9050818103604083015261200a8187611ed6565b9050818103606083015261201e8186611ed6565b905081810360808301526120328185611ed6565b905081810360a08301526120468184611ed6565b9050979650505050505050565b600061016082019050818103600083015261206e818e611ed6565b90508181036020830152612082818d611ed6565b90508181036040830152612096818c611ed6565b905081810360608301526120aa818b611ed6565b905081810360808301526120be818a611ed6565b905081810360a08301526120d28189611ed6565b905081810360c08301526120e68188611ed6565b905081810360e08301526120fa8187611ed6565b905081810361010083015261210f8186611ed6565b905061211f610120830185611f75565b61212d610140830184611ec7565b9c9b505050505050505050505050565b600060408201905081810360008301526121578185611ed6565b90506121666020830184611f75565b9392505050565b6000602082019050818103600083015261218681611f0f565b9050919050565b60006020820190506121a26000830184611f75565b92915050565b6000604051905081810181811067ffffffffffffffff821117156121cf576121ce612304565b5b8060405250919050565b600067ffffffffffffffff8211156121f4576121f3612304565b5b601f19601f8301169050602081019050919050565b600081519050919050565b600082825260208201905092915050565b600061223082612237565b9050919050565b600073ffffffffffffffffffffffffffffffffffffffff82169050919050565b6000819050919050565b82818337600083830152505050565b60005b8381101561228e578082015181840152602081019050612273565b8381111561229d576000848401525b50505050565b600060028204905060018216806122bb57607f821691505b602082108114156122cf576122ce6122d5565b5b50919050565b7f4e487b7100000000000000000000000000000000000000000000000000000000600052602260045260246000fd5b7f4e487b7100000000000000000000000000000000000000000000000000000000600052604160045260246000fd5b6000601f19601f8301169050919050565b61234d81612257565b811461235857600080fd5b5056fea2646970667358221220dcdca85a627cbd0bb0fa3c11be1021aa8186a1bd63f94f807c7e31d6244ae69664736f6c63430008000033",
  "immutableReferences": {},
  "source": "// SPDX-License-Identifier: MIT\r\npragma solidity ^0.8.0;\r\n\r\ncontract VehiculoContract {\r\n    address public propietario;\r\n\r\n    struct DatosBasicosVehiculo {\r\n        string placa;\r\n        string numeroMotor;\r\n        string numeroChasis;\r\n        string VIN;\r\n        string marca;\r\n        string clase;\r\n        string linea;\r\n        string modelo;\r\n        string color;\r\n        uint256 fechaMatricula;\r\n        address direccionCuentaOT;\r\n    }\r\n\r\n    struct DetallesVehiculo {\r\n        string cilindraje;\r\n        string potencia;\r\n        string capacidad;\r\n        string servicio;\r\n        string carroceria;\r\n        string combustible;\r\n    }\r\n\r\n    struct OwnerInfo {\r\n        string name;\r\n        uint256 cedula;\r\n    }\r\n\r\n    struct OwnershipRecord {\r\n        address previousOwner;\r\n        uint256 timestamp;\r\n    }\r\n\r\n    DatosBasicosVehiculo public datosBasicosVehiculo;\r\n    DetallesVehiculo public detallesVehiculo;\r\n    OwnerInfo public ownerData;\r\n    OwnershipRecord[] public ownershipHistory;\r\n\r\n    modifier onlyOwner() {\r\n        require(msg.sender == propietario, \"Only the owner can call this function\");\r\n        _;\r\n    }\r\n\r\n    constructor() {\r\n        propietario = msg.sender;\r\n    }\r\n\r\n    function llenarDatosBasicosVehiculo(\r\n        string memory _placa,\r\n        string memory _numeroMotor,\r\n        string memory _numeroChasis,\r\n        string memory _VIN,\r\n        string memory _marca,\r\n        string memory _clase,\r\n        string memory _linea,\r\n        string memory _modelo,\r\n        string memory _color\r\n    ) public onlyOwner {\r\n        datosBasicosVehiculo = DatosBasicosVehiculo({\r\n            placa: _placa,\r\n            numeroMotor: _numeroMotor,\r\n            numeroChasis: _numeroChasis,\r\n            VIN: _VIN,\r\n            marca: _marca,\r\n            clase: _clase,\r\n            linea: _linea,\r\n            modelo: _modelo,\r\n            color: _color,\r\n            fechaMatricula: block.timestamp,\r\n            direccionCuentaOT: msg.sender\r\n        });\r\n    }\r\n\r\n    function llenarDetallesVehiculo(\r\n        string memory _cilindraje,\r\n        string memory _potencia,\r\n        string memory _capacidad,\r\n        string memory _servicio,\r\n        string memory _carroceria,\r\n        string memory _combustible\r\n    ) public onlyOwner {\r\n        detallesVehiculo = DetallesVehiculo({\r\n            cilindraje: _cilindraje,\r\n            potencia: _potencia,\r\n            capacidad: _capacidad,\r\n            servicio: _servicio,\r\n            carroceria: _carroceria,\r\n            combustible: _combustible\r\n        });\r\n    }\r\n\r\n    function setOwnerInfo(string memory _name, uint256 _cedula) public onlyOwner {\r\n        // Aade un nuevo registro al historial de propietarios\r\n        ownershipHistory.push(OwnershipRecord({\r\n            previousOwner: propietario,\r\n            timestamp: block.timestamp\r\n        }));\r\n\r\n        ownerData = OwnerInfo({\r\n            name: _name,\r\n            cedula: _cedula\r\n        });\r\n\r\n        // Actualiza al nuevo propietario\r\n        propietario = msg.sender;\r\n    }\r\n\r\n    function getOwnershipHistoryCount() public view returns (uint256) {\r\n        return ownershipHistory.length;\r\n    }\r\n\r\n    function obtenerDatosBasicosVehiculo() public view returns (\r\n        string memory, string memory, string memory, string memory, string memory,\r\n        string memory, string memory, string memory, string memory, uint256, address\r\n    ) {\r\n        return (\r\n            datosBasicosVehiculo.placa,\r\n            datosBasicosVehiculo.numeroMotor,\r\n            datosBasicosVehiculo.numeroChasis,\r\n            datosBasicosVehiculo.VIN,\r\n            datosBasicosVehiculo.marca,\r\n            datosBasicosVehiculo.clase,\r\n            datosBasicosVehiculo.linea,\r\n            datosBasicosVehiculo.modelo,\r\n            datosBasicosVehiculo.color,\r\n            datosBasicosVehiculo.fechaMatricula,\r\n            datosBasicosVehiculo.direccionCuentaOT\r\n        );\r\n    }\r\n\r\n    function obtenerDetallesVehiculo() public view returns (\r\n        string memory, string memory, string memory, string memory, string memory, string memory\r\n    ) {\r\n        return (\r\n            detallesVehiculo.cilindraje,\r\n            detallesVehiculo.potencia,\r\n            detallesVehiculo.capacidad,\r\n            detallesVehiculo.servicio,\r\n            detallesVehiculo.carroceria,\r\n            detallesVehiculo.combustible\r\n        );\r\n    }\r\n}",
  "sourcePath": "D:\\Miguel\\Documentos\\Maestra\\Tesis\\DApps\\AngularGanacheTemplate\\contracts\\VehiculoContract.sol",
  "compiler": {
    "name": "solc",
    "version": "0.8.0+commit.c7dfd78e.Emscripten.clang"
  },
  "schemaVersion": "3.4.16",
  "updatedAt": "2024-02-15T02:16:10.405Z",
  "networkType": "ethereum",
  "devdoc": {
    "kind": "dev",
    "methods": {},
    "version": 1
  },
  "userdoc": {
    "kind": "user",
    "methods": {},
    "version": 1
  }
}