{
  "contractName": "VehiculoContract",
  "abi": [
    {
      "inputs": [],
      "stateMutability": "nonpayable",
      "type": "constructor"
    },
    {
      "inputs": [],
      "name": "datosBasicosVehiculo",
      "outputs": [
        {
          "internalType": "string",
          "name": "placa",
          "type": "string"
        },
        {
          "internalType": "string",
          "name": "numeroMotor",
          "type": "string"
        },
        {
          "internalType": "string",
          "name": "numeroChasis",
          "type": "string"
        },
        {
          "internalType": "string",
          "name": "VIN",
          "type": "string"
        },
        {
          "internalType": "string",
          "name": "marca",
          "type": "string"
        },
        {
          "internalType": "string",
          "name": "clase",
          "type": "string"
        },
        {
          "internalType": "string",
          "name": "linea",
          "type": "string"
        },
        {
          "internalType": "string",
          "name": "modelo",
          "type": "string"
        },
        {
          "internalType": "string",
          "name": "color",
          "type": "string"
        },
        {
          "internalType": "uint256",
          "name": "fechaMatricula",
          "type": "uint256"
        },
        {
          "internalType": "address",
          "name": "direccionCuentaOT",
          "type": "address"
        }
      ],
      "stateMutability": "view",
      "type": "function",
      "constant": true
    },
    {
      "inputs": [],
      "name": "detallesVehiculo",
      "outputs": [
        {
          "internalType": "string",
          "name": "cilindraje",
          "type": "string"
        },
        {
          "internalType": "string",
          "name": "potencia",
          "type": "string"
        },
        {
          "internalType": "string",
          "name": "capacidad",
          "type": "string"
        },
        {
          "internalType": "string",
          "name": "servicio",
          "type": "string"
        },
        {
          "internalType": "string",
          "name": "carroceria",
          "type": "string"
        },
        {
          "internalType": "string",
          "name": "combustible",
          "type": "string"
        }
      ],
      "stateMutability": "view",
      "type": "function",
      "constant": true
    },
    {
      "inputs": [
        {
          "internalType": "uint256",
          "name": "",
          "type": "uint256"
        }
      ],
      "name": "historialPropietarios",
      "outputs": [
        {
          "internalType": "address",
          "name": "",
          "type": "address"
        }
      ],
      "stateMutability": "view",
      "type": "function",
      "constant": true
    },
    {
      "inputs": [],
      "name": "precioVenta",
      "outputs": [
        {
          "internalType": "uint256",
          "name": "",
          "type": "uint256"
        }
      ],
      "stateMutability": "view",
      "type": "function",
      "constant": true
    },
    {
      "inputs": [],
      "name": "propietario",
      "outputs": [
        {
          "internalType": "address",
          "name": "",
          "type": "address"
        }
      ],
      "stateMutability": "view",
      "type": "function",
      "constant": true
    },
    {
      "inputs": [
        {
          "internalType": "uint256",
          "name": "_precioVenta",
          "type": "uint256"
        }
      ],
      "name": "ponerEnVenta",
      "outputs": [],
      "stateMutability": "nonpayable",
      "type": "function"
    },
    {
      "inputs": [],
      "name": "comprarVehiculo",
      "outputs": [],
      "stateMutability": "payable",
      "type": "function",
      "payable": true
    },
    {
      "inputs": [
        {
          "internalType": "string",
          "name": "_placa",
          "type": "string"
        },
        {
          "internalType": "string",
          "name": "_numeroMotor",
          "type": "string"
        },
        {
          "internalType": "string",
          "name": "_numeroChasis",
          "type": "string"
        },
        {
          "internalType": "string",
          "name": "_VIN",
          "type": "string"
        },
        {
          "internalType": "string",
          "name": "_marca",
          "type": "string"
        },
        {
          "internalType": "string",
          "name": "_clase",
          "type": "string"
        },
        {
          "internalType": "string",
          "name": "_linea",
          "type": "string"
        },
        {
          "internalType": "string",
          "name": "_modelo",
          "type": "string"
        },
        {
          "internalType": "string",
          "name": "_color",
          "type": "string"
        }
      ],
      "name": "llenarDatosBasicosVehiculo",
      "outputs": [],
      "stateMutability": "nonpayable",
      "type": "function"
    },
    {
      "inputs": [
        {
          "internalType": "string",
          "name": "_cilindraje",
          "type": "string"
        },
        {
          "internalType": "string",
          "name": "_potencia",
          "type": "string"
        },
        {
          "internalType": "string",
          "name": "_capacidad",
          "type": "string"
        },
        {
          "internalType": "string",
          "name": "_servicio",
          "type": "string"
        },
        {
          "internalType": "string",
          "name": "_carroceria",
          "type": "string"
        },
        {
          "internalType": "string",
          "name": "_combustible",
          "type": "string"
        }
      ],
      "name": "llenarDetallesVehiculo",
      "outputs": [],
      "stateMutability": "nonpayable",
      "type": "function"
    },
    {
      "inputs": [],
      "name": "obtenerDatosBasicosVehiculo",
      "outputs": [
        {
          "internalType": "string",
          "name": "",
          "type": "string"
        },
        {
          "internalType": "string",
          "name": "",
          "type": "string"
        },
        {
          "internalType": "string",
          "name": "",
          "type": "string"
        },
        {
          "internalType": "string",
          "name": "",
          "type": "string"
        },
        {
          "internalType": "string",
          "name": "",
          "type": "string"
        },
        {
          "internalType": "string",
          "name": "",
          "type": "string"
        },
        {
          "internalType": "string",
          "name": "",
          "type": "string"
        },
        {
          "internalType": "string",
          "name": "",
          "type": "string"
        },
        {
          "internalType": "string",
          "name": "",
          "type": "string"
        },
        {
          "internalType": "uint256",
          "name": "",
          "type": "uint256"
        },
        {
          "internalType": "address",
          "name": "",
          "type": "address"
        }
      ],
      "stateMutability": "view",
      "type": "function",
      "constant": true
    },
    {
      "inputs": [],
      "name": "obtenerDetallesVehiculo",
      "outputs": [
        {
          "internalType": "string",
          "name": "",
          "type": "string"
        },
        {
          "internalType": "string",
          "name": "",
          "type": "string"
        },
        {
          "internalType": "string",
          "name": "",
          "type": "string"
        },
        {
          "internalType": "string",
          "name": "",
          "type": "string"
        },
        {
          "internalType": "string",
          "name": "",
          "type": "string"
        },
        {
          "internalType": "string",
          "name": "",
          "type": "string"
        }
      ],
      "stateMutability": "view",
      "type": "function",
      "constant": true
    },
    {
      "inputs": [],
      "name": "obtenerTamanoHistorial",
      "outputs": [
        {
          "internalType": "uint256",
          "name": "",
          "type": "uint256"
        }
      ],
      "stateMutability": "view",
      "type": "function",
      "constant": true
    }
  ],
  "bytecode": "0x608060405234801561001057600080fd5b50336000806101000a81548173ffffffffffffffffffffffffffffffffffffffff021916908373ffffffffffffffffffffffffffffffffffffffff1602179055506001339080600181540180825580915050600190039060005260206000200160009091909190916101000a81548173ffffffffffffffffffffffffffffffffffffffff021916908373ffffffffffffffffffffffffffffffffffffffff1602179055506122f0806100c36000396000f3fe6080604052600436106100a75760003560e01c80636f8db890116100645780636f8db890146101a757806387069b09146101d057806397aaf5b014610200578063c511e52b1461022b578063f516c7e31461025b578063ff43bc9714610284576100a7565b80631281173b146100ac5780633c4f81cd146100e9578063443135c4146101145780634ef2c0601461013d57806355284757146101725780636a5857ce1461019d575b600080fd5b3480156100b857600080fd5b506100d360048036038101906100ce9190611e7c565b6102b9565b6040516100e09190611f3c565b60405180910390f35b3480156100f557600080fd5b506100fe6102f8565b60405161010b9190611f3c565b60405180910390f35b34801561012057600080fd5b5061013b60048036038101906101369190611e7c565b61031c565b005b34801561014957600080fd5b506101526103be565b6040516101699b9a99989796959493929190611fe2565b60405180910390f35b34801561017e57600080fd5b50610187610936565b60405161019491906120ec565b60405180910390f35b6101a561093c565b005b3480156101b357600080fd5b506101ce60048036038101906101c99190611cde565b610a16565b005b3480156101dc57600080fd5b506101e5610c6f565b6040516101f796959493929190611f57565b60405180910390f35b34801561020c57600080fd5b50610215610fc9565b60405161022291906120ec565b60405180910390f35b34801561023757600080fd5b50610240610fd6565b60405161025296959493929190611f57565b60405180910390f35b34801561026757600080fd5b50610282600480360381019061027d9190611bc5565b611359565b005b34801561029057600080fd5b506102996114cf565b6040516102b09b9a99989796959493929190611fe2565b60405180910390f35b600181815481106102c957600080fd5b906000526020600020016000915054906101000a900473ffffffffffffffffffffffffffffffffffffffff1681565b60008054906101000a900473ffffffffffffffffffffffffffffffffffffffff1681565b60008054906101000a900473ffffffffffffffffffffffffffffffffffffffff1673ffffffffffffffffffffffffffffffffffffffff163373ffffffffffffffffffffffffffffffffffffffff16146103aa576040517f08c379a00000000000000000000000000000000000000000000000000000000081526004016103a1906120cc565b60405180910390fd5b806002819055506103bb60006119ff565b50565b606080606080606080606080606060008060036000016003600101600360020160038001600360040160036005016003600601600360070160036008016003600901546003600a0160009054906101000a900473ffffffffffffffffffffffffffffffffffffffff168a805461043390612202565b80601f016020809104026020016040519081016040528092919081815260200182805461045f90612202565b80156104ac5780601f10610481576101008083540402835291602001916104ac565b820191906000526020600020905b81548152906001019060200180831161048f57829003601f168201915b50505050509a508980546104bf90612202565b80601f01602080910402602001604051908101604052809291908181526020018280546104eb90612202565b80156105385780601f1061050d57610100808354040283529160200191610538565b820191906000526020600020905b81548152906001019060200180831161051b57829003601f168201915b5050505050995088805461054b90612202565b80601f016020809104026020016040519081016040528092919081815260200182805461057790612202565b80156105c45780601f10610599576101008083540402835291602001916105c4565b820191906000526020600020905b8154815290600101906020018083116105a757829003601f168201915b505050505098508780546105d790612202565b80601f016020809104026020016040519081016040528092919081815260200182805461060390612202565b80156106505780601f1061062557610100808354040283529160200191610650565b820191906000526020600020905b81548152906001019060200180831161063357829003601f168201915b5050505050975086805461066390612202565b80601f016020809104026020016040519081016040528092919081815260200182805461068f90612202565b80156106dc5780601f106106b1576101008083540402835291602001916106dc565b820191906000526020600020905b8154815290600101906020018083116106bf57829003601f168201915b505050505096508580546106ef90612202565b80601f016020809104026020016040519081016040528092919081815260200182805461071b90612202565b80156107685780601f1061073d57610100808354040283529160200191610768565b820191906000526020600020905b81548152906001019060200180831161074b57829003601f168201915b5050505050955084805461077b90612202565b80601f01602080910402602001604051908101604052809291908181526020018280546107a790612202565b80156107f45780601f106107c9576101008083540402835291602001916107f4565b820191906000526020600020905b8154815290600101906020018083116107d757829003601f168201915b5050505050945083805461080790612202565b80601f016020809104026020016040519081016040528092919081815260200182805461083390612202565b80156108805780601f1061085557610100808354040283529160200191610880565b820191906000526020600020905b81548152906001019060200180831161086357829003601f168201915b5050505050935082805461089390612202565b80601f01602080910402602001604051908101604052809291908181526020018280546108bf90612202565b801561090c5780601f106108e15761010080835404028352916020019161090c565b820191906000526020600020905b8154815290600101906020018083116108ef57829003601f168201915b505050505092509a509a509a509a509a509a509a509a509a509a509a50909192939495969798999a565b60025481565b600073ffffffffffffffffffffffffffffffffffffffff1660008054906101000a900473ffffffffffffffffffffffffffffffffffffffff1673ffffffffffffffffffffffffffffffffffffffff161461099557600080fd5b6002543410156109a457600080fd5b6109ad336119ff565b60008054906101000a900473ffffffffffffffffffffffffffffffffffffffff1673ffffffffffffffffffffffffffffffffffffffff166108fc349081150290604051600060405180830381858888f19350505050158015610a13573d6000803e3d6000fd5b50565b60008054906101000a900473ffffffffffffffffffffffffffffffffffffffff1673ffffffffffffffffffffffffffffffffffffffff163373ffffffffffffffffffffffffffffffffffffffff1614610aa4576040517f08c379a0000000000000000000000000000000000000000000000000000000008152600401610a9b906120cc565b60405180910390fd5b6040518061016001604052808a81526020018981526020018881526020018781526020018681526020018581526020018481526020018381526020018281526020014281526020013373ffffffffffffffffffffffffffffffffffffffff1681525060036000820151816000019080519060200190610b24929190611aa5565b506020820151816001019080519060200190610b41929190611aa5565b506040820151816002019080519060200190610b5e929190611aa5565b506060820151816003019080519060200190610b7b929190611aa5565b506080820151816004019080519060200190610b98929190611aa5565b5060a0820151816005019080519060200190610bb5929190611aa5565b5060c0820151816006019080519060200190610bd2929190611aa5565b5060e0820151816007019080519060200190610bef929190611aa5565b50610100820151816008019080519060200190610c0d929190611aa5565b50610120820151816009015561014082015181600a0160006101000a81548173ffffffffffffffffffffffffffffffffffffffff021916908373ffffffffffffffffffffffffffffffffffffffff160217905550905050505050505050505050565b600e806000018054610c8090612202565b80601f0160208091040260200160405190810160405280929190818152602001828054610cac90612202565b8015610cf95780601f10610cce57610100808354040283529160200191610cf9565b820191906000526020600020905b815481529060010190602001808311610cdc57829003601f168201915b505050505090806001018054610d0e90612202565b80601f0160208091040260200160405190810160405280929190818152602001828054610d3a90612202565b8015610d875780601f10610d5c57610100808354040283529160200191610d87565b820191906000526020600020905b815481529060010190602001808311610d6a57829003601f168201915b505050505090806002018054610d9c90612202565b80601f0160208091040260200160405190810160405280929190818152602001828054610dc890612202565b8015610e155780601f10610dea57610100808354040283529160200191610e15565b820191906000526020600020905b815481529060010190602001808311610df857829003601f168201915b505050505090806003018054610e2a90612202565b80601f0160208091040260200160405190810160405280929190818152602001828054610e5690612202565b8015610ea35780601f10610e7857610100808354040283529160200191610ea3565b820191906000526020600020905b815481529060010190602001808311610e8657829003601f168201915b505050505090806004018054610eb890612202565b80601f0160208091040260200160405190810160405280929190818152602001828054610ee490612202565b8015610f315780601f10610f0657610100808354040283529160200191610f31565b820191906000526020600020905b815481529060010190602001808311610f1457829003601f168201915b505050505090806005018054610f4690612202565b80601f0160208091040260200160405190810160405280929190818152602001828054610f7290612202565b8015610fbf5780601f10610f9457610100808354040283529160200191610fbf565b820191906000526020600020905b815481529060010190602001808311610fa257829003601f168201915b5050505050905086565b6000600180549050905090565b606080606080606080600e600501600e600001600e600101600e600201600e600301600e60040185805461100990612202565b80601f016020809104026020016040519081016040528092919081815260200182805461103590612202565b80156110825780601f1061105757610100808354040283529160200191611082565b820191906000526020600020905b81548152906001019060200180831161106557829003601f168201915b5050505050955084805461109590612202565b80601f01602080910402602001604051908101604052809291908181526020018280546110c190612202565b801561110e5780601f106110e35761010080835404028352916020019161110e565b820191906000526020600020905b8154815290600101906020018083116110f157829003601f168201915b5050505050945083805461112190612202565b80601f016020809104026020016040519081016040528092919081815260200182805461114d90612202565b801561119a5780601f1061116f5761010080835404028352916020019161119a565b820191906000526020600020905b81548152906001019060200180831161117d57829003601f168201915b505050505093508280546111ad90612202565b80601f01602080910402602001604051908101604052809291908181526020018280546111d990612202565b80156112265780601f106111fb57610100808354040283529160200191611226565b820191906000526020600020905b81548152906001019060200180831161120957829003601f168201915b5050505050925081805461123990612202565b80601f016020809104026020016040519081016040528092919081815260200182805461126590612202565b80156112b25780601f10611287576101008083540402835291602001916112b2565b820191906000526020600020905b81548152906001019060200180831161129557829003601f168201915b505050505091508080546112c590612202565b80601f01602080910402602001604051908101604052809291908181526020018280546112f190612202565b801561133e5780601f106113135761010080835404028352916020019161133e565b820191906000526020600020905b81548152906001019060200180831161132157829003601f168201915b50505050509050955095509550955095509550909192939495565b60008054906101000a900473ffffffffffffffffffffffffffffffffffffffff1673ffffffffffffffffffffffffffffffffffffffff163373ffffffffffffffffffffffffffffffffffffffff16146113e7576040517f08c379a00000000000000000000000000000000000000000000000000000000081526004016113de906120cc565b60405180910390fd5b6040518060c0016040528087815260200186815260200185815260200184815260200183815260200182815250600e6000820151816000019080519060200190611432929190611aa5565b50602082015181600101908051906020019061144f929190611aa5565b50604082015181600201908051906020019061146c929190611aa5565b506060820151816003019080519060200190611489929190611aa5565b5060808201518160040190805190602001906114a6929190611aa5565b5060a08201518160050190805190602001906114c3929190611aa5565b50905050505050505050565b60038060000180546114e090612202565b80601f016020809104026020016040519081016040528092919081815260200182805461150c90612202565b80156115595780601f1061152e57610100808354040283529160200191611559565b820191906000526020600020905b81548152906001019060200180831161153c57829003601f168201915b50505050509080600101805461156e90612202565b80601f016020809104026020016040519081016040528092919081815260200182805461159a90612202565b80156115e75780601f106115bc576101008083540402835291602001916115e7565b820191906000526020600020905b8154815290600101906020018083116115ca57829003601f168201915b5050505050908060020180546115fc90612202565b80601f016020809104026020016040519081016040528092919081815260200182805461162890612202565b80156116755780601f1061164a57610100808354040283529160200191611675565b820191906000526020600020905b81548152906001019060200180831161165857829003601f168201915b50505050509080600301805461168a90612202565b80601f01602080910402602001604051908101604052809291908181526020018280546116b690612202565b80156117035780601f106116d857610100808354040283529160200191611703565b820191906000526020600020905b8154815290600101906020018083116116e657829003601f168201915b50505050509080600401805461171890612202565b80601f016020809104026020016040519081016040528092919081815260200182805461174490612202565b80156117915780601f1061176657610100808354040283529160200191611791565b820191906000526020600020905b81548152906001019060200180831161177457829003601f168201915b5050505050908060050180546117a690612202565b80601f01602080910402602001604051908101604052809291908181526020018280546117d290612202565b801561181f5780601f106117f45761010080835404028352916020019161181f565b820191906000526020600020905b81548152906001019060200180831161180257829003601f168201915b50505050509080600601805461183490612202565b80601f016020809104026020016040519081016040528092919081815260200182805461186090612202565b80156118ad5780601f10611882576101008083540402835291602001916118ad565b820191906000526020600020905b81548152906001019060200180831161189057829003601f168201915b5050505050908060070180546118c290612202565b80601f01602080910402602001604051908101604052809291908181526020018280546118ee90612202565b801561193b5780601f106119105761010080835404028352916020019161193b565b820191906000526020600020905b81548152906001019060200180831161191e57829003601f168201915b50505050509080600801805461195090612202565b80601f016020809104026020016040519081016040528092919081815260200182805461197c90612202565b80156119c95780601f1061199e576101008083540402835291602001916119c9565b820191906000526020600020905b8154815290600101906020018083116119ac57829003601f168201915b50505050509080600901549080600a0160009054906101000a900473ffffffffffffffffffffffffffffffffffffffff1690508b565b806000806101000a81548173ffffffffffffffffffffffffffffffffffffffff021916908373ffffffffffffffffffffffffffffffffffffffff1602179055506001819080600181540180825580915050600190039060005260206000200160009091909190916101000a81548173ffffffffffffffffffffffffffffffffffffffff021916908373ffffffffffffffffffffffffffffffffffffffff16021790555050565b828054611ab190612202565b90600052602060002090601f016020900481019282611ad35760008555611b1a565b82601f10611aec57805160ff1916838001178555611b1a565b82800160010185558215611b1a579182015b82811115611b19578251825591602001919060010190611afe565b5b509050611b279190611b2b565b5090565b5b80821115611b44576000816000905550600101611b2c565b5090565b6000611b5b611b5684612138565b612107565b905082815260208101848484011115611b7357600080fd5b611b7e8482856121c0565b509392505050565b600082601f830112611b9757600080fd5b8135611ba7848260208601611b48565b91505092915050565b600081359050611bbf816122a3565b92915050565b60008060008060008060c08789031215611bde57600080fd5b600087013567ffffffffffffffff811115611bf857600080fd5b611c0489828a01611b86565b965050602087013567ffffffffffffffff811115611c2157600080fd5b611c2d89828a01611b86565b955050604087013567ffffffffffffffff811115611c4a57600080fd5b611c5689828a01611b86565b945050606087013567ffffffffffffffff811115611c7357600080fd5b611c7f89828a01611b86565b935050608087013567ffffffffffffffff811115611c9c57600080fd5b611ca889828a01611b86565b92505060a087013567ffffffffffffffff811115611cc557600080fd5b611cd189828a01611b86565b9150509295509295509295565b60008060008060008060008060006101208a8c031215611cfd57600080fd5b60008a013567ffffffffffffffff811115611d1757600080fd5b611d238c828d01611b86565b99505060208a013567ffffffffffffffff811115611d4057600080fd5b611d4c8c828d01611b86565b98505060408a013567ffffffffffffffff811115611d6957600080fd5b611d758c828d01611b86565b97505060608a013567ffffffffffffffff811115611d9257600080fd5b611d9e8c828d01611b86565b96505060808a013567ffffffffffffffff811115611dbb57600080fd5b611dc78c828d01611b86565b95505060a08a013567ffffffffffffffff811115611de457600080fd5b611df08c828d01611b86565b94505060c08a013567ffffffffffffffff811115611e0d57600080fd5b611e198c828d01611b86565b93505060e08a013567ffffffffffffffff811115611e3657600080fd5b611e428c828d01611b86565b9250506101008a013567ffffffffffffffff811115611e6057600080fd5b611e6c8c828d01611b86565b9150509295985092959850929598565b600060208284031215611e8e57600080fd5b6000611e9c84828501611bb0565b91505092915050565b611eae81612184565b82525050565b6000611ebf82612168565b611ec98185612173565b9350611ed98185602086016121cf565b611ee281612292565b840191505092915050565b6000611efa601d83612173565b91507f4e6f206572657320656c2070726f706965746172696f2061637475616c0000006000830152602082019050919050565b611f36816121b6565b82525050565b6000602082019050611f516000830184611ea5565b92915050565b600060c0820190508181036000830152611f718189611eb4565b90508181036020830152611f858188611eb4565b90508181036040830152611f998187611eb4565b90508181036060830152611fad8186611eb4565b90508181036080830152611fc18185611eb4565b905081810360a0830152611fd58184611eb4565b9050979650505050505050565b6000610160820190508181036000830152611ffd818e611eb4565b90508181036020830152612011818d611eb4565b90508181036040830152612025818c611eb4565b90508181036060830152612039818b611eb4565b9050818103608083015261204d818a611eb4565b905081810360a08301526120618189611eb4565b905081810360c08301526120758188611eb4565b905081810360e08301526120898187611eb4565b905081810361010083015261209e8186611eb4565b90506120ae610120830185611f2d565b6120bc610140830184611ea5565b9c9b505050505050505050505050565b600060208201905081810360008301526120e581611eed565b9050919050565b60006020820190506121016000830184611f2d565b92915050565b6000604051905081810181811067ffffffffffffffff8211171561212e5761212d612263565b5b8060405250919050565b600067ffffffffffffffff82111561215357612152612263565b5b601f19601f8301169050602081019050919050565b600081519050919050565b600082825260208201905092915050565b600061218f82612196565b9050919050565b600073ffffffffffffffffffffffffffffffffffffffff82169050919050565b6000819050919050565b82818337600083830152505050565b60005b838110156121ed5780820151818401526020810190506121d2565b838111156121fc576000848401525b50505050565b6000600282049050600182168061221a57607f821691505b6020821081141561222e5761222d612234565b5b50919050565b7f4e487b7100000000000000000000000000000000000000000000000000000000600052602260045260246000fd5b7f4e487b7100000000000000000000000000000000000000000000000000000000600052604160045260246000fd5b6000601f19601f8301169050919050565b6122ac816121b6565b81146122b757600080fd5b5056fea264697066735822122051262ae8974d7aadce201df4c5a7144bacde912fc6f6722346da37883dca951d64736f6c63430008000033",
  "immutableReferences": {},
  "source": "// SPDX-License-Identifier: MIT\r\npragma solidity ^0.8.0;\r\n\r\ncontract VehiculoContract {\r\n    address public propietario;\r\n    address[] public historialPropietarios;\r\n    uint256 public precioVenta;\r\n\r\n    struct DatosBasicosVehiculo {\r\n        string placa;\r\n        string numeroMotor;\r\n        string numeroChasis;\r\n        string VIN;\r\n        string marca;\r\n        string clase;\r\n        string linea;\r\n        string modelo;\r\n        string color;\r\n        uint256 fechaMatricula;\r\n        address direccionCuentaOT;\r\n    }\r\n\r\n    struct DetallesVehiculo {\r\n        string cilindraje;\r\n        string potencia;\r\n        string capacidad;\r\n        string servicio;\r\n        string carroceria;\r\n        string combustible;\r\n    }\r\n\r\n    DatosBasicosVehiculo public datosBasicosVehiculo;\r\n    DetallesVehiculo public detallesVehiculo;\r\n\r\n    modifier onlyOwner() {\r\n        require(msg.sender == propietario, \"No eres el propietario actual\");\r\n        _;\r\n    }\r\n\r\n    constructor() {\r\n        propietario = msg.sender;\r\n        historialPropietarios.push(msg.sender);\r\n    }\r\n\r\n    function cambiarPropietario(address nuevoPropietario) internal {\r\n        propietario = nuevoPropietario;\r\n        historialPropietarios.push(nuevoPropietario);\r\n    }\r\n\r\n    function ponerEnVenta(uint256 _precioVenta) public onlyOwner {\r\n        precioVenta = _precioVenta;\r\n        cambiarPropietario(address(0));\r\n    }\r\n\r\n    function comprarVehiculo() public payable {\r\n        require(propietario == address(0));\r\n        require(msg.value >= precioVenta);\r\n\r\n        cambiarPropietario(msg.sender);\r\n\r\n        payable(propietario).transfer(msg.value);\r\n    }\r\n\r\n    function llenarDatosBasicosVehiculo(\r\n        string memory _placa,\r\n        string memory _numeroMotor,\r\n        string memory _numeroChasis,\r\n        string memory _VIN,\r\n        string memory _marca,\r\n        string memory _clase,\r\n        string memory _linea,\r\n        string memory _modelo,\r\n        string memory _color\r\n    ) public onlyOwner {\r\n        datosBasicosVehiculo = DatosBasicosVehiculo({\r\n            placa: _placa,\r\n            numeroMotor: _numeroMotor,\r\n            numeroChasis: _numeroChasis,\r\n            VIN: _VIN,\r\n            marca: _marca,\r\n            clase: _clase,\r\n            linea: _linea,\r\n            modelo: _modelo,\r\n            color: _color,\r\n            fechaMatricula: block.timestamp,\r\n            direccionCuentaOT: msg.sender\r\n        });\r\n    }\r\n\r\n    function llenarDetallesVehiculo(\r\n        string memory _cilindraje,\r\n        string memory _potencia,\r\n        string memory _capacidad,\r\n        string memory _servicio,\r\n        string memory _carroceria,\r\n        string memory _combustible\r\n    ) public onlyOwner {\r\n        detallesVehiculo = DetallesVehiculo({\r\n            cilindraje: _cilindraje,\r\n            potencia: _potencia,\r\n            capacidad: _capacidad,\r\n            servicio: _servicio,\r\n            carroceria: _carroceria,\r\n            combustible: _combustible\r\n        });\r\n    }\r\n\r\n    function obtenerDatosBasicosVehiculo() public view returns (\r\n        string memory, string memory, string memory, string memory, string memory,\r\n        string memory, string memory, string memory, string memory, uint256, address\r\n    ) {\r\n        return (\r\n            datosBasicosVehiculo.placa,\r\n            datosBasicosVehiculo.numeroMotor,\r\n            datosBasicosVehiculo.numeroChasis,\r\n            datosBasicosVehiculo.VIN,\r\n            datosBasicosVehiculo.marca,\r\n            datosBasicosVehiculo.clase,\r\n            datosBasicosVehiculo.linea,\r\n            datosBasicosVehiculo.modelo,\r\n            datosBasicosVehiculo.color,\r\n            datosBasicosVehiculo.fechaMatricula,\r\n            datosBasicosVehiculo.direccionCuentaOT\r\n        );\r\n    }\r\n\r\n    function obtenerDetallesVehiculo() public view returns (\r\n        string memory, string memory, string memory, string memory, string memory, string memory\r\n    ) {\r\n        return (\r\n            detallesVehiculo.combustible,\r\n            detallesVehiculo.cilindraje,\r\n            detallesVehiculo.potencia,\r\n            detallesVehiculo.capacidad,\r\n            detallesVehiculo.servicio,\r\n            detallesVehiculo.carroceria\r\n        );\r\n    }\r\n\r\n    function obtenerTamanoHistorial() public view returns (uint256) {\r\n        return historialPropietarios.length;\r\n    }\r\n}",
  "sourcePath": "D:\\Miguel\\Documentos\\Maestra\\Tesis\\DApps\\AngularGanacheTemplate\\contracts\\VehiculoContract.sol",
  "compiler": {
    "name": "solc",
    "version": "0.8.0+commit.c7dfd78e.Emscripten.clang"
  },
  "schemaVersion": "3.4.16",
  "updatedAt": "2024-02-18T06:13:37.129Z",
  "networkType": "ethereum",
  "devdoc": {
    "kind": "dev",
    "methods": {},
    "version": 1
  },
  "userdoc": {
    "kind": "user",
    "methods": {},
    "version": 1
  }
}